S01100006F6C65645F753867322E73726563CA
S11300000C945D040C947A040C947A040C947A0491
S11300100C947A040C947A040C947A040C947A0464
S11300200C947A040C947A040C947A040C947A0454
S11300300C947A040C947A040C947A040C947A0444
S11300400C947A040C947A040C947A040C947A0434
S11300500C947A040C947A040C947A040C947A0424
S11300600C947A040C947A045F00040305050405D7
S1130070061614FDFC0EFC0EFE028805D70834207B
S11300800600602C012111C4253443E2E0C042443F
S113009099C4418404002209A564464182170223BD
S11300A01F8B616449424C424C42E660E260464226
S11300B04C42E660E26046424C424C420800242333
S11300C049A65B2930AC4622A224A224A422C8E675
S11300D020E420C628A224A422A42242A62C30086C
S11300E000252CEEE17B65464A64224826444826D6
S11300F0244A26424A24DD8870CC98884854884C87
S113010090884C508C4C8C92A0A8A950002623D0E7
S1130110258C8B5644524652467242B478A6C64643
S113012068822468A66A886A8AA6E620E4660400CF
S11301302708A2642EE16000281205A23347446414
S1130140446444466F6664668404291105A23341FD
S113015048664666469F8C888CA8012A12E7E045CB
S11301606524C94484C88844C4489211002B0E4AAB
S1130170215C4950A3830323418D002C0CE4602BA4
S113018043E22062241B002D0865E034E141002E87
S11301900B84202C43E2204202002F10C6213C494C
S11301A05190A22045418A8214013014C9255C670C
S11301B06862444662C6BF99901199189A01310C3D
S11301C0C7295C4768A468FFC9013217C9255C8741
S11301D0466462C66642666C6A6C6A4A4CD5C14122
S11301E0013319C9255C87466462C66642664C6859
S11301F0526E42C6CD84C84C09003419C9255C2FFF
S11302004E6C8A51C44CC848CC48CC44D0C481D428
S1130210D854013517C9255CE320E22430A14DCC24
S1130220DCD8848C9B09919912003618C9255CA7E7
S113023064858C8DC4D8C408C51A6F266426468488
S113024066003712C9255CE141D994989C989CD8E2
S1130250AAB18D003818C9255C674846428AAAE8C5
S113026042C4C824E4A88AAA46860600391AC925C5
S11302705C674864624662C69B89099289B1091920
S11302801B8991911A003A0F24253443E220424CF1
S1130290E2204202003B1084653343E220424CE2F8
S11302A02062241B003C0C4A215C518C8833420E92
S11302B0053D0CC9A45CE1013DCCC101013E0C4AE1
S11302C0215C419067449C09023F14C92154A7440E
S11302D0E4C66642664CF7106254644200402ACF7A
S11302E02184EB6C4C463244A644424409898C0870
S11302F0898C08858C88841A1109251322221344B9
S113030092316362074100411ECE1D742F5A7696C6
S11303103262324430662E662C6AEA40286C286EBB
S1130320446E82AA004222CC2174E160668664682D
S1130330646864686466E62068C9D4C4D4C4D4C458
S1130340D4C4D0C4810C004318CC2174A92484C51E
S113035098C45821CB0D23E622C66268A46A0044DF
S113036023CE2184E1606A88666C646C646E626E7C
S1130370626E626E626E626E626C646C6488E4606B
S113038008004523CB216CE1806268624A6226241E
S11303906226246244E868446826682624622C6243
S11303A04A62E8E000461FCB216CE1806268624A41
S11303B06226246226246244E86844682668266823
S11303C0709D15004720CD217CA9248684644C644B
S11303D04C623062306274D541D8C8D4C8D40C0998
S11303E0554904004822CE2184A1A8626C646C643F
S11303F06C646C646CE4A0646C646C646C646C64C5
S11304006C646CA2A800490BC5254CA16264FF8BE7
S1130410024A15CA1D64AB6C6E9FC84C904C904C3C
S1130420088D880C11014B20CE2184A1A6644A6852
S1130430486A466C446E42D0F06E826C846A866868
S113044088668AA2C6004C11CA2164A16C6E7F150D
S1130450311531243173604D33D1219CC1AC848C6E
S1130460A68A266228622664266226642662266498
S113047024642666226426662264268666266866C6
S1130480266866642868A226A6004E25CE218481AB
S1130490AA826A862A882AA828054D500849500C41
S11304A04550505114511451D8CC98485908004F14
S11304B018CE2184C98C84666C646C62D00F27C604
S11304C046C66648C88C00501ACC2174E140688640
S11304D064886288628862886286E42068728775AC
S11304E00051204E2283C98C84666C646C62D02FC8
S11304F0682646464466246628CA8C8527224B47CC
S1130500005223CD2184E1806688646A646A646A47
S11305106468E6206A66686668866668666866680F
S1130520C26802005319CA2164872264C590C45466
S11305300499D595995559D5C9444809005413CB04
S1130540216CE1C064CD8CCC8CCC4CD0E07E5703C4
S11305505522CE2184A1A8626C642E662E662E6676
S11305602E662E662E662E662E662E662E6848CE63
S11305700800561FCF1D74C1A8826C662E882A6C91
S11305802A6C2A6E2670267222742276783A3C0EE1
S113059000572FD41D9CC1C2A482866866682A882D
S11305A086266C86266C86268C2282227022642201
S11305B070226422908674687468362C382C0C007F
S11305C0581DCF218CC3A486688A466E44D0949863
S11305D0B4D450844C686A88668CA2C8005917CD7C
S11305E0217CC186824A662A88466A268C22B07299
S11305F0740F6F005A1ACC216CE14158D944184544
S1130600141DE1201DAB08B288B1B28383005B0ADC
S113061004A633C144FF4F085C14C8214C414C4E1E
S11306204C4E4C4E4C4E4C4E4C4E4C005D0A04A26B
S1130630338144FF4F0C5E0F08A14D474C8A884616
S1130640440B2122015F0849604BE10101600985E7
S1130650A43E4166910061142A215CE36466426809
S11306608C6662CDC4CCC4089301621ACC1D64812B
S1130670722F886846A626A626A626A626A626683B
S113068046246A006310292154A764C4A86CAB886B
S113069019191200641ACC216C8F72471423331475
S11306A05313531353135313532333441404651430
S11306B02A215C87686462C8E8E0406E2C6248A620
S11306C004006610C8213C87466257433653FBA892
S11306D00600671FEB215B5370C4686446484648B4
S11306E06664C848F220E820426A424C6248E60642
S11306F0006819CC216C81722F6A48488646864668
S113070086468646864686264A0A690BC521346390
S1130710642DC97E516A10471633697B10A2FD917E
S113072085850809006B18CC216C81724F4A668458
S113073046C226C4AE2688466866282A0C6C0AC5BA
S113074021348164FF17056D1A3321A481A2C28666
S1130750A4846468C9D092A125434B86960CAD2825
S1130760696E182C216C81A286846468646864684C
S1130770646864686468A2A4006F102B2164A7688D
S11307806662CA571333433500701CAC1D63618421
S11307908866646A626A626A626A626A826664829B
S11307A06872611D00711AAC216387446486626AB1
S11307B0626A626A626A626A6486886272C3027288
S11307C01028214C814284426244626A4735007396
S11307D014292154852244466228C2E8CAAA482220
S11307E0A204007412A72144272C4A68C664684FE7
S11307F0224642280075172C216CA1846468646821
S11308006468646864686468844D050176152A1D0B
S11308104CA16462286428662468248A8C4E50089B
S113082000771E301D7CA1A2646266286466286677
S113083084246884248A848C844E48504808007830
S1130840142B2164C1828D0C8554DD5C95048D0CC0
S1130850058501791DAB2163A166622A642A662697
S113086068266A226C226E70324A266A226E0E0054
S11308707A0F292154E180A686889B22A203027B59
S11308800F05A233474464278A64467623247C07F1
S1130890C2315CE1077D1005A233414866641B2127
S11308A011913D51037E0C6A246565C541C4C80895
S11308B00000000004FFFF00000011241FBECFEF62
S11308C0D8E0DEBFCDBF11E0A0E0B1E0E2ECFDE195
S11308D002C005900D92A836B107D9F723E0A8E627
S11308E0B1E001C01D92AE3EB207E1F70E940505DA
S11308F00C94DF0E0C9400006A3251F018F4693243
S113090069F03FC06B3281F06C32D9F581E0089513
S113091050E014161506DCF081E0089550E014163A
S113092015060CF181E00895242F30E0A4E6B0E030
S11309300E94C90E28EF30E040E050E00E94A70E6C
S1130940233208F5822F0197F1F781E0089580E0C2
S113095090E025E32A95F1F70000019684179507A6
S1130960C1F781E0089580E090E0EFE9FFE031977E
S1130970F1F700C00000019684179507B1F781E0F4
S1130980089580E0089581E00895CF93DF93613462
S1130990C9F028F4683251F0603471F02BC06A3425
S11309A0E9F06B3409F1693429F512C0259A239AC8
S11309B0229A219A209A25C0442311F02D9A21C00D
S11309C02D981FC0442311F02B9A1BC02B9819C0DB
S11309D0442311F02A9A15C02A9813C0442311F015
S11309E0299A0FC029980DC0442311F0289A09C0F0
S11309F0289807C0EC010E947C04811102C081E0A8
S1130A008A8F81E0DF91CF91089525EC34E043EAA9
S1130A105BE06CE071E088E893E00E94A20588E85E
S1130A2093E00E94840D60E088E893E00E948F0DBB
S1130A3088E893E00E947B0568E670E088E893E02C
S1130A400E948A0920E031E042E161E088E893E015
S1130A500E94370988E893E00E949105FFCFAF9286
S1130A60BF92CF92DF92EF92FF920F931F93CF9397
S1130A70DF937C01DC019596BC9095979696DC916A
S1130A809697ED91FC91A188CD2FC12CD12CD70143
S1130A90ED91FC911197208993960D911C91949757
S1130AA0422F50E0440F551F440F551F440F551F4C
S1130AB04C9DC0014D9D900D5C9D900D1124080F1F
S1130AC0191F4C2F60E0C7010E94560DCF5F8C2F79
S1130AD08D1B8B1528F4BFEFCB1ADB0ACA15B8F2AD
S1130AE0DF91CF911F910F91FF90EF90DF90CF9006
S1130AF0BF90AF900895FC01A081B18150969C9164
S1130B0045A1949FA0011124440F551F440F551F64
S1130B10440F551F60E070E083A194A10E94D80E99
S1130B200895CF93DF93EC010E942F05CE010E941C
S1130B309A0DDF91CF91089524E0FC01208388E68B
S1130B4091E00895CF92DF92EF92FF920F931F935B
S1130B50CF93DF931F92CDB7DEB77C016B01890180
S1130B609A0146ED5CE068E17EE00E94810ECE01D0
S1130B7001960E949C0586012AE43AE04981BC0161
S1130B80C7010E94410B0F90DF91CF911F910F91EC
S1130B90FF90EF90DF90CF900895FC01E60FF11DD8
S1130BA0849190E0982F88273196E4918E0F911DBF
S1130BB00895213031F018F0223029F006C0840F56
S1130BC00895860F0895841B0895861B0895213087
S1130BD031F018F0223029F006C0860F0895841BE6
S1130BE00895861B0895840F089580E008950F9357
S1130BF01F93CF93DF93EC018B01FB0184918883D6
S1130C003196E491E983FB013296E491EA83FB0196
S1130C103396E491EB83FB013496E491EC83FB017E
S1130C203596E491ED83FB013696E491EE83FB0166
S1130C303796E491EF83FB013896E491E887FB0152
S1130C403996E491E987FB013A96E491EA87FB013E
S1130C503B96E491EB87FB013C96E491EC87FB0126
S1130C603D96E491ED87FB013E96E491EE87FB010E
S1130C703F96E491EF87FB017096E491E88B61E184
S1130C80C8010E94CD059A8B898B63E1C8010E943B
S1130C90CD059C8B8B8B65E1C8010E94CD059E8B95
S1130CA08D8BDF91CF911F910F910895DC011896E0
S1130CB09C911897ED91FC911197249130E0092EA5
S1130CC002C0359527950A94E2F7892F860F88305C
S1130CD010F4E22F0FC031961196FC93EE93E49139
S1130CE0F0E038E0391B02C0EE0FFF1F3A95E2F73F
S1130CF0E22B885018968C9381E090E002C0880F14
S1130D00991F6A95E2F781508E2308950F931F93DC
S1130D10CF93DF93EC018C01065C1F4F7BAF6AAF6E
S1130D20FC01EE5BFF4F108239966081C8010E947E
S1130D305606FE01E05CFF4F80833C966081C8014B
S1130D400E945606FE01EF5BFF4F8083B3968081BD
S1130D50B0978083CB5BDF4F91E0811190E0988363
S1130D60DF91CF911F910F910895CF93C62F0E94C9
S1130D705606C15021E030E002C0220F331FCA954D
S1130D80E2F7821BCF9108952F923F924F925F9288
S1130D906F927F928F929F92AF92BF92CF92DF9287
S1130DA0EF92FF920F931F93CF93DF93CDB7DEB7EC
S1130DB028970FB6F894DEBF0FBECDBF7C016887BD
S1130DC0342EFC0176AC17AD5C01F0E4AF0EB11C1F
S1130DD06C0186E4C80ED11C470193E4890E911C72
S1130DE0F701EC59FF4FFA83E983C7018B5B9F4FEF
S1130DF09E838D83B097FC83EB83F501F081F71913
S1130E00FF835884F51508F45F2EF70165ACF601ED
S1130E100081212E202F412F672DF70184AD0E94E0
S1130E20E705482E202F412F672D862D0E94D905D6
S1130E30332069F0EB81FC819081E981FA81908310
S1130E40252D482F642DC7010E94AC0910C0F40160
S1130E50908191110CC0ED81FE819081E981FA812C
S1130E609083252D482F642DC7010E94AC09F88575
S1130E708F81F81728F0F81BF8871F5F712CBDCFFE
S1130E808885870DF70186AF27AE28960FB6F894AC
S1130E90DEBF0FBECDBFDF91CF911F910F91FF90A9
S1130EA0EF90DF90CF90BF90AF909F908F907F9006
S1130EB06F905F904F903F902F9008958F929F92E4
S1130EC0AF92BF92CF92DF92EF92FF920F931F9354
S1130ED0CF93DF93EC017C018AE3E80EF11CCE0191
S1130EE00E948606FE01EF5BFF4F90803C96608176
S1130EF0C7010E94B506B82EFE01E25BFF4F608178
S1130F00C7010E94B506182FFE01E15BFF4F608107
S1130F10C7010E94B506882EFE01E05CFF4FD08019
S1130F201D140CF077C036960081190D1195202FF1
S1130F30412F6B2D8CAD0E94E705C82E8CAF202F5E
S1130F40412F6B2D8DAD0E94D9058DAF013059F025
S1130F5028F0023091F00330D9F023C02D2D2C0D50
S1130F60092D080F20C09C2D991921E02C0D0D2D61
S1130F70080FCC24C394C90E16C091E0392F3D1933
S1130F8021E02C0D991901E0080F890FC30E0BC045
S1130F90292D2C0D982F9D1901E0080F81E0890F50
S1130FA002C0082F2C2D482F6C2DCE010E942F0A31
S1130FB0882381F11EAE1FAE5E01E9E4AE0EB11CC2
S1130FC06E01FAE4CF0ED11CF5016081C7010E94C5
S1130FD05606082FF6016081C7010E945606182F95
S1130FE040E0602FCE010E94C40641E0612FCE0193
S1130FF00E94C40661E0C7010E9456068111F0CF29
S11310008FAD89150CF3FE01EC59FF4FCC5BDF4F1C
S113101088818083882DDF91CF911F910F91FF905C
S1131020EF90DF90CF90BF90AF909F908F900895F6
S1131030EF92FF920F931F93CF93DF93FC01C6A906
S1131040D7A967966F3F710511F008F036C0613675
S1131050710538F0E65AFF4F80819181C80FD91F7E
S11310600AC06134710538F0FC01E85AFF4F8081F1
S11310709181C80FD91FCE010196FC01249122232E
S113108009F45AC0FE01249130E06217730751F449
S113109006C0FE01249130E06217730719F4CE01F3
S11310A0029652C0FC018491C80FD11DCE01019655
S11310B0FC0124912111EDCF42C08B01FC01E45AC3
S11310C0FF4F80819181C80FD91F7E0160E0C70165
S11310D00E94CD05C80FD91F62E0C7010E94CD054B
S11310E0F4E0EF0EF11C8017910780F3FE01849168
S11310F090E0982F88273196E4918E2B009711F178
S11311000817190739F403C00817190719F4CE0191
S113111003961AC0FE013296E491CE0FD11DFE0152
S1131120849190E0982F88273196E4918E2B009734
S113113059F780E090E008C080E090E005C080E0CE
S113114090E002C080E090E0DF91CF911F910F9179
S1131150FF90EF900895EF92FF920F931F93CF9318
S1131160DF93EC01062F142F7901FC01EA5BFF4F9A
S11311708081813061F028F0823079F0833099F0F9
S113118017C0E8ADF9ADCE010995180F11C0E8AD4F
S1131190F9ADCE010995081B0BC0E8ADF9ADCE0140
S11311A00995181B05C0E8ADF9ADCE010995080FE6
S11311B00CAF1DAFB701CE010E941808009729F0AB
S11311C0BC01CE010E945E0701C080E0DF91CF9197
S11311D01F910F91FF90EF900895BF92CF92DF92ED
S11311E0EF92FF920F931F93CF93DF93EC01B62EF0
S11311F0C42EE22EF32E0E947B0B0E2D1F2DD12C1C
S11312007E0126E4E20EF11CF80161918F01EA816E
S1131210FB81CE0109958F3FFFEF9F07E9F08E3FD9
S11312202FEF920789F39C014C2D6B2DCE010E9468
S1131230AB08F7019081913041F028F0923039F0F9
S1131240933039F007C0B80E05C0C80E03C0B81AF1
S113125001C0C81AD80ED8CF8D2DDF91CF911F9120
S11312600F91FF90EF90DF90CF90BF900895EEE63E
S1131270FBE0DC011396FC93EE9312970E94ED08B9
S11312800895FC0126A937A9232BE9F1EC5AFF4F55
S113129020813C9620833B9740813C964083329743
S11312A03081332381F1313079F439973081231738
S11312B014F43A963083FC01E95AFF4F2081241735
S11312C014F53A9620830895FC01EF5AFF4FE0810C
S11312D0DC01AD5ABF4F5C91022E000C330B652F1D
S11312E0052E000C770B6E0F711DE7FD7A952617FE
S11312F037071CF41D96E50FEC93541724F4FC01F6
S1131300EF59FF4F5083089525EF35E0FC0131AFCD
S113131020AF0895CF93DF93FC0126A937A92617A0
S1131320370751F0EC0177AB66AB895B9F4F0E94A6
S1131330F705CE010E944109DF91CF9108950F93E3
S1131340DC0199963C919997431B5F96ED91FC9132
S1131350909709950F9108950F93FC01E25AFF4F5E
S11313603081332309F465C0222309F462C022309A
S113137058F0023019F46F5F621B0AC0033021F485
S11313804F5F421B51E02DC0502F517000FD29C00A
S1131390DC01D0963C91D097431708F44AC0D1960B
S11313A03C91D197431708F044C09F963C919F9776
S11313B09E965C91260F261730F4631718F42FEFCE
S11313C0230F03C0652F6317A0F5521790F5651717
S11313D008F4652F231708F4322F232F261B50E01F
S11313E01EC0FC0136A5631720F137A5631708F565
S11313F031A970A9240F241730F4431718F42FEFE0
S1131400230F03C0472F4317A0F4721790F4471714
S113141008F4472F231708F4322F232F241BDC0151
S11314209196ED91FC9192970480F581E02D052F22
S113143009950F910895461738F4821760F081E0FA
S1131440241760F080E00895821738F481E02417AF
S113145028F080E0089581E0089580E00895FF92E7
S11314600F931F93CF93DF93EC01162FF22E202FAF
S113147069A988A90E941B0A882331F02F2D412FC6
S11314806FA58EA50E941B0ADF91CF911F910F912A
S1131490FF900895EF92FF920F93CF93DF937C0117
S11314A0342F377081E090E0032E02C0880F991F1B
S11314B00A94E2F7C82FF701EC59FF4F50815230DC
S11314C020F4513021F0782F04C070E002C0782F4E
S11314D0C0E050E0487FD70193968D919C919497FA
S11314E0ED91FC91D089D49FF001D59FF00D11248A
S11314F0E60FF11DE80FF91F011107C08081872B4A
S11315008C2781932150D1F722C0A7014C595F4FFA
S11315109081972B9C2790833F5F37702150311126
S11315200EC0D70197968C91E80FF11DDA018C91CA
S1131530823040F4813041F0C1E071E006C0770FA1
S1131540CC0F03C0C1E001C071E02111E1CFDF91F4
S1131550CF910F91FF90EF900895FC01A081B1818C
S113156085A1982F990F990F990F90A750969C9148
S11315705097903208F09FE1990F990F990F97A314
S113158046A1942F990F990F990F91A751965C91A9
S11315905197242F30E0280F311D652F70E062171A
S11315A0730714F4852F841B92A7880F880F880F64
S11315B0890F83A780EF84A754968D919C915597AA
S11315C0813F910508F484A756968C9185A70895C8
S11315D00E94AD0A08950F93CF93DF93EC010DA9F8
S11315E02BA94CA96AA90E942F0A811104C0C25ACE
S11315F0DF4F188219C081E0FE01E25AFF4F808359
S11316008AA99EA5981708F48EA78BA99FA5891768
S113161008F48FA78CA998A9981708F488AB8DA90A
S113162099A9891708F489ABDF91CF910F91089597
S1131630FC0116A684A587A782A580AB83A581ABF0
S1131640CF010E94EB0A08950F930E949F090F9106
S11316500895DC01D2961C92D297D4961C92D4970A
S11316608FEFD3968C93D397D5968C93D5979196E9
S1131670ED91FC9192970280F381E02DCD010995C3
S113168008950F931F93CF93DF93EC011FAA1EAA13
S113169038A32F8F7CA36BA34DA31EA2FC01ED5B8B
S11316A0FF4F1082B0961082319681E0808331968C
S11316B080831AA309A3D801ED91FC91CE01099569
S11316C0CE010E94290BCE010E948409CA5BDF4F20
S11316D01882DF91CF911F910F910895662329F00D
S11316E06A3031F0862F90E008958FEF9FEF0895D0
S11316F08FEF9FEF0895FC01118E0895462FDC01B2
S11317001896ED91FC91199720E030E060E209957C
S113171008959A01DC011896ED91FC911997462FD2
S113172067E109950895CF93DF931F92CDB7DEB794
S11317306983AE014F5F5F4F61E00E94890B0F9098
S1131740DF91CF9108959F92AF92BF92CF92DF9293
S1131750EF92FF920F931F93CF93DF93EC017901E4
S1131760A881B981683109F467C030F4643109F49F
S11317704FC06731C9F182C0693109F46EC060326B
S113178009F455C07BC0F70101917F0118E00023E3
S113179034F4492D61E4CE010E945E0E05C040E0A0
S11317A061E4CE010E945E0E000F4A2D60E4CE017A
S11317B00E945E0EE881F98146816CE2CE010E94AE
S11317C05E0E4B2D60E4CE010E945E0EE881F9812D
S11317D047816CE2CE010E945E0E1150C1F6CE1418
S11317E0DF0489F681E04DC0442309F449C01C9606
S11317F08C918170B82E4150C42ED12CFFEFCF1A9A
S1131800DF0AC20ED31E99249394A92CA81ABBCF25
S113181011964C9169E40E945E0EE881F981448539
S1131820417060E4CE010E945E0E81E02AC06AE449
S11318300E945E0E81E025C04C9169E40E945E0E18
S1131840A881B981EA85FB8520E030E012964C91AD
S11318506CE2CE01099581E014C0EA85FB8520E0A5
S113186030E013964C916CE20995E881F98141814D
S113187069E4CE010E945E0E81E003C080E001C0F5
S113188081E0DF91CF911F910F91FF90EF90DF9056
S1131890CF90BF90AF909F900895462FDC0116968D
S11318A0ED91FC91179720E030E065E109950895EA
S11318B0462FDC011696ED91FC91179720E030E05D
S11318C066E1099508959A01DC011696ED91FC9163
S11318D01797462F67E109950895DC011696ED9157
S11318E0FC91179720E030E040E068E10995089505
S11318F0DC011696ED91FC91179720E030E040E072
S113190069E109950895EF92FF920F931F93CF9386
S1131910DF931F92CDB7DEB77C018B01D8016C91A8
S11319206731C1F018F4653130F438C06A31F8F029
S11319306E3F51F133C0F80141814983D7011696B6
S1131940ED91FC91179720E030E0C70109950E5FF7
S11319501F4FE4CFF80181818983AE014F5F5F4F50
S113196061E0C7010E94630C0E5F1F4FD7CF0F5F6A
S11319701F4FD7011696ED91FC91179720E030E0A8
S113198040E0C7010995CACFF8014181498369E262
S1131990C7010E945E0E0E5F1F4FC0CF0F90DF91F4
S11319A0CF911F910F91FF90EF900895EF92FF92C6
S11319B00F931F93CF93DF938C01C62FD42F7901FC
S11319C06631A1F028F46431E9F0653131F025C0C5
S11319D06731A9F06A3108F515C060E00E947E0BFA
S11319E06D2FC8010E94930B81E018C060E00E9433
S11319F07E0B6D2FC8010E94930B81E00FC061E044
S1131A000E947E0BD8011896ED91FC9119979701CD
S1131A104D2F6C2FC801099501C080E0DF91CF9153
S1131A201F910F91FF90EF900895FC0171836083E3
S1131A30FB012289FC01248B0895CF93DF93EC01F1
S1131A40EA85FB8520E030E040E068E20995EE811C
S1131A50FF8120E030E040E064E1CE01099541E0FF
S1131A606BE4CE010E945E0EE881F981448169E253
S1131A70CE010E945E0E40E06BE4CE010E945E0E39
S1131A80E881F981448169E2CE010E945E0E41E061
S1131A906BE4CE010E945E0EE881F981458169E222
S1131AA0CE010E945E0EDF91CF9108950F931F9394
S1131AB0CF93DF9300D000D01F92CDB7DEB76C83F5
S1131AC04D832B831A830983DC011496ED91FC91D9
S1131AD015979E012F5F3F4F41E06FE009950F90EE
S1131AE00F900F900F900F90DF91CF911F910F9156
S1131AF00895DC011496ED91FC91159720E030E0F7
S1131B0040E069E009950895DC011496ED91FC919B
S1131B10159720E030E040E06AE009950895462FEB
S1131B20DC011496ED91FC91159720E030E06BE018
S1131B3009950895DC011496ED91FC91159720E028
S1131B4030E040E060E109950895DF92EF92FF9262
S1131B500F931F93CF93DF938C01C42F79016E30C1
S1131B6009F44CC06F3021F06B3009F058C038C014
S1131B700E946D0CF701D380DD0CDD0CDD0CF80147
S1131B808489D80E6D2D62956F706061C8010E94C2
S1131B904D0C6D2D6F70C8010E944D0CF7016481CE
S1131BA0606BC8010E944D0CF701D281DD0FDD0F7F
S1131BB0DD0FE080F1808D2D90E08D0F911D853833
S1131BC0910510F0D4E8DD19A7016D2FC8010E941A
S1131BD0630CC150C9F7C8010E94780C81E020C091
S1131BE0411106C060E671E00E94830C81E018C0D8
S1131BF069E571E00E94830C81E012C00E946D0CC3
S1131C0061E8C8010E944D0C6C2F66956695C80169
S1131C100E94580CC8010E94780C81E001C080E049
S1131C20DF91CF911F910F91FF90EF90DF90089576
S1131C300F931F93CF93DF938C01C62FD42F0E9451
S1131C40A50D811135C0CA3059F0CD3099F0C93095
S1131C5081F563E371E0C8010E94150D81E029C09C
S1131C60C8010E941D0D62E171E0C8010E94830C4D
S1131C7081E01FC0D1110EC062E571E0C8010E946D
S1131C80830CD801ED91FC911197828954968C9321
S1131C9081E00FC06BE471E0C8010E94830CD8019D
S1131CA0ED91FC911197838954968C9381E001C046
S1131CB081E0DF91CF911F910F910895DC011A9675
S1131CC0ED91FC911B9720E030E00995089580E0A8
S1131CD00895FC011182108287E69EE09583848337
S1131CE0978386839187808793878287158A108E4E
S1131CF0118E14861586168617868FEF868B838F32
S1131D000895AF92BF92CF92DF92EF92FF920F931A
S1131D101F93CF93DF93EC015B016A0179010E9469
S1131D20690EBD82AC82DF82CE82F986E8861B878B
S1131D300A87CE010E94790DDF91CF911F910F91F7
S1131D40FF90EF90DF90CF90BF90AF900895A1E205
S1131D501A2EAA1BBB1BFD010DC0AA1FBB1FEE1F21
S1131D60FF1FA217B307E407F50720F0A21BB30B6C
S1131D70E40BF50B661F771F881F991F1A9469F7E8
S1131D8060957095809590959B01AC01BD01CF0144
S1131D900895A29FB001B39FC001A39F700D811D40
S1131DA01124911DB29F700D811D1124911D089560
S1131DB0DC0101C06D9341505040E0F70895F89460
S1051DC0FFCF4F
S1131DC255386732206F6E2041565200E80A180BCC
S1131DD2240B1815E215AE154015A115C015A6154C
S1131DE2A2152F15F8160015231581161F15AE1509
S1131DF2A519FF000196320101327800093D000065
S1131E0204285011040000840020001815A015C8ED
S1131E1219FF1815A115C019FF1815AE15A519FF3C
S10B1E221815A415AF19FF0007
S9030000FC
