S013000041504453393636305F50422E7372656323
S11300000C945A000C9477000C9477000C947700AD
S11300100C9477000C9477000C9477000C94770080
S11300200C9477000C9477000C9477000C94770070
S11300300C9477000C9477000C9477000C94770060
S11300400C9477000C9477000C9477000C94770050
S11300500C9477000C9477000C9477000C94770040
S11300600C9477000C9477000C9477000C94770030
S11300700C9477000C9477000C9477000C94770020
S11300800C9477000C9477000C9477000C94770010
S11300900C9477000C9477000C9477000C94770000
S11300A00C9477000C9477000C9477000C947700F0
S11300B00C94770011241FBECFEFD8E0DEBFCDBF74
S11300C011E0A0E0B1E0E0E6F4E002C005900D929A
S11300D0A830B107D9F721E0A8E0B1E001C01D9232
S11300E0A631B207E1F70E947F010C942E020C9412
S11300F000001092B90088E48093B800089594EA4F
S11301009093BC00ECEBF0E090819923ECF7909194
S1130110B900987F983011F09031A1F48093BB001E
S113012084E88093BC00ECEBF0E080818823ECF75A
S11301309091B900987F983139F081E0903429F496
S113014080E0089581E0089580E0089584E9809333
S1130150BC00ECEBF0E0808184FDFDCF089580933A
S1130160BB0084E88093BC00ECEBF0E08081882342
S1130170ECF79091B900987F81E0983209F480E01F
S1130180089584EC8093BC00ECEBF0E0808188233C
S1130190ECF78091BB00089501979C0140E050E08A
S11301A060E472E48FE090E00E94D701832F9927E6
S11301B08093C5002093C400E1ECF0E0808188695D
S11301C08083E2ECF0E080818E6080830895E0EC2F
S11301D0F0E0908195FFFDCF8093C6000895CF9302
S11301E0DF93EC018881882331F021960E94E70097
S11301F089918111FBCFDF91CF9108952FEF82E593
S113020097E0215080409040E1F700C0000082E771
S11302100E947F0080E80E94AF0083E00E94AF004C
S11302200E94A60082E70E947F0081E80E94AF003E
S11302308BED0E94AF000E94A60082E70E947F001F
S11302408FE80E94AF0081E00E94AF000E94A600E8
S1130250089582E70E947F0084E90E94AF000E9413
S1130260A60083E70E947F000E94C10090E0909363
S11302700901809308010E94C10020910801309176
S11302800901382B30930901209308010E94C10011
S113029090E090930F0180930E010E94C100209181
S11302A00E0130910F01382B30930F0120930E0172
S11302B00E94C10090E090930D0180930C010E9474
S11302C0C10020910C0130910D01382B30930D01A8
S11302D020930C010E94C10090E090930B01809345
S11302E00A010E94C10020910A0130910B01382BB0
S11302F030930B0120930A010E94A600089580E820
S113030095E20E94CC000E9479000E94FE000E94A7
S113031029014AE060E171E08091080190910901AE
S11303200E94F90180E191E00E94EF0080E091E0F9
S11303300E94EF004AE060E171E080910E0190912B
S11303400F010E94F90180E191E00E94EF0080E03A
S113035091E00E94EF004AE060E171E080910C01BD
S113036090910D010E94F90180E191E00E94EF005B
S113037080E091E00E94EF004AE060E171E080914A
S11303800A0190910B010E94F90180E191E00E9421
S1130390EF0083E091E00E94EF002FEF83ED90E304
S11303A0215080409040E1F700C00000B0CFA1E2AE
S11303B01A2EAA1BBB1BFD010DC0AA1FBB1FEE1FDB
S11303C0FF1FA217B307E407F50720F0A21BB30B26
S11303D0E40BF50B661F771F881F991F1A9469F7A2
S11303E060957095809590959B01AC01BD01CF01FE
S11303F00895BB274A3031F4992322F4BDE2909545
S113040081959F4F0C940502BB27FB015527AA2712
S1130410880F991FAA1FA41710F0A41B839550518D
S1130420B9F7A05DAA3308F0A95DA193009779F705
S1130430B111B1931192CB010C941E02DC01FC01A9
S1130440672F71917723E1F7329704C07C916D9304
S113045070836291AE17BF07C8F30895F894FFCF75
S10B046020200020200D0A00F9
S9030000FC
