:100000000C945A000C947E000C9464000C946400D0
:100010000C9464000C9464000C9464000C946400D0
:100020000C9464000C9464000C9464000C946400C0
:100030000C9464000C9464000C9464000C946400B0
:100040000C9464000C9464000C9464000C946400A0
:100050000C9464000C9464000C9464000C94640090
:100060000C9464000C9464000C9464000C94640080
:100070000C9464000C9464000C9464000C94640070
:100080000C9464000C9464000C9464000C94640060
:100090000C9464000C9464000C9464000C94640050
:1000A0000C9464000C9464000C9464000C94640040
:1000B0000C94640011241FBECFEFD8E0DEBFCDBF8B
:1000C0000E9466000C949B000C94000084B1806335
:1000D00084B95A9A82E08093690081E08DBB78945C
:1000E00090E185B1892785B92FEF33ED80E3215069
:1000F00030408040E1F700C00000F3CF1F920F9224
:100100000FB60F9211242F938F939F9395B180E296
:10011000892785B92FEF83ED90E3215080409040EF
:10012000E1F700C000009F918F912F910F900FBEBB
:0A0130000F901F901895F894FFCF70
:00000001FF
