:100000000C942A000C9454000C943C000C943C007A
:100010000C943C000C943C000C943C000C943C0070
:100020000C943C000C943C000C943C000C943C0060
:100030000C943C000C943C000C943C000C943C0050
:100040000C943C000C943C000C943C000C943C0040
:100050000C943C0011241FBECFE5D4E0DEBFCDBF21
:1000600020E0A0E6B0E001C01D92A136B207E1F7A2
:100070000E9472000C9495000C9400001ABA87E854
:1000800086B980E487B908958770806487B9369A05
:10009000349BFECF349A8FEC97E00197F1F700C0C4
:1000A000000084B195B108951F920F920FB60F9280
:1000B00011242F938F939F9380916000809580935C
:1000C00060002FE788E391E0215080409040E1F705
:1000D00000C000009F918F912F910F900FBE0F9045
:1000E0001F9018958FEF84BB8A98BB9A80E48BBFD2
:1000F00083E085BF78940E943E0012BE8BE683BFEA
:10010000D2E0C1E080916000882311F0C5BB01C03E
:10011000D5BB80E00E94440099230CF4039695958A
:0E0120008795959587958CBFEDCFF894FFCF0E
:00000001FF
