S018000044435F4D6F746F725F436F6E74726F6C2E73726563D5
S11300000C9434000C946C000C9446000C94460040
S11300100C9446000C9446000C9446000C94460044
S11300200C9446000C9446000C9446000C94460034
S11300300C9446000C9446000C9446000C94460024
S11300400C9446000C9446000C9446000C94460014
S11300500C9446000C9446000C9446000C94460004
S11300600C9446000C94460011241FBECFEFD8E038
S1130070DEBFCDBF21E0A0E0B1E001C01D92A03001
S1130080B207E1F70E948A000C94A9000C940000C6
S113009017B887E880937A0080E480937C00089501
S11300A08770806480937C00EAE7F0E0808180645C
S11300B08083808184FFFDCFEAE7F0E08081806166
S11300C080838FEC97E00197F1F700C000008091E6
S11300D078009091790008951F920F920FB60F92B5
S11300E011242F938F939F9385B585BD2FEF81E1C5
S11300F09AE7215080409040E1F700C0000085B5A8
S1130100856085BD9F918F912F910F900FBE0F90A9
S11301101F90189552985A9A569AE9E6F0E0808111
S113012082608083E89A78940E94480016BC84B563
S1130130836884BD85B5856085BD80E00E945000DC
S113014099230CF40396959587959595879587BD86
S1090150F4CFF894FFCF88
S9030000FC
