S01000004E524632345F54582E73726563BD
S11300000C9434000C9451000C9451000C94510045
S11300100C9451000C9451000C9451000C94510018
S11300200C9451000C94A5010C9451000C945100B3
S11300300C9451000C9451000C9451000C945100F8
S11300400C9451000C9451000C9461030C9496038D
S11300500C9451000C9451000C9451000C945100D8
S11300600C9451000C94510011241FBECFEFD8E022
S1130070DEBFCDBF11E0A0E0B1E0E0EAF1E102C0F3
S113008005900D92A431B107D9F722E0A4E1B1E0C3
S113009001C01D92AA31B207E1F70E941A010C9423
S11300A0CE080C940000EAE7F0E090819F779083FB
S11300B0ACE7B0E09C91987F8770892B8C9380810A
S11300C0806880830895EAE7F0E08081806480831B
S11300D0808186FDFDCF809178009091790008950C
S11300E0ACE7B0E08C91806C8C93EAE7F0E080811F
S11300F0876080838C918C93ABE7B0E08C918C9378
S113010080818068808308958F929F92AF92BF927E
S1130110CF92DF92EF92FF92CF93DF934B015C017A
S1130120C42FD52F0E94A1046B017C01072E000C63
S1130130880B990B0E94D9049B01AC01C501B40141
S11301400E94C20320E030E048EC52E40E946505BE
S11301500E94A1049B01772324F422273327261B22
S1130160370B3F932F93DF92CF9286E091E09F93DA
S11301708F93DF93CF930E94E4058DB79EB70896C3
S11301800FB6F8949EBF0FBE8DBFDF91CF91FF9045
S1130190EF90DF90CF90BF90AF909F908F90089595
S11301A0CF92DF92EF92FF92CF93DF930E9453009E
S11301B0C0E8D0E0C12CD12C76010E946300C80EA7
S11301C0D91EE11CF11C2197C1F7D701C601FF20FC
S11301D024F481589F4FAF4FBF4F689416F8B595DC
S11301E0A795979587951694D1F7DF91CF91FF90B6
S11301F0EF90DF90CF900895BC0180E090E00E94E2
S1130200D7042FE23AEB48EE53E40E94C20320E005
S113021030E849E854E40E94650520E030E040E815
S11302205AE30E94650520E030E040E251E40E9478
S11302302F040895CF93DF93CDB7DEB760970FB641
S1130240F894DEBF0FBECDBF85E0E1E0F1E0DE0152
S1130250199601900D928A95E1F70E9470007894A6
S11302600E944C0362E0CE010E960E940903569A46
S11302705E98229A2A9A83B7817F866083BFE4E6D8
S1130280F0E080818F6E808380818F7B808304E6A1
S113029010E0809100018E3108F44DC00E945C038F
S11302A010920001F80180818E7F808380818B7F92
S11302B080835E9A2A9AFFEF23EC89E0F150204074
S11302C08040E1F700C000000E94B60168E082E0CF
S11302D00E944C02CE0109960E94D70280E00E943F
S11302E0D0000E94FC00AE014F5F5F4F0E9484006B
S11302F0BE016F5F7F4FCE010E960E940C03BE01BC
S11303006F5F7F4FCE010E960E941003CE010196BF
S11303100E948F020E94FE018111FCCF5E982A98F0
S1130320F8018081816080838081846080830E9461
S113033045030E94B402F89483B7816083BF789424
S1130340889583B78E7F83BFA4CF1F920F920FB679
S11303500F9211248F93809100018F5F809300018D
S11303608F910F900FBE0F901F9018950E94E80276
S113037080E00E94EE0281E00E94F4020895EF9270
S1130380FF921F93CF93DF93E82E80E00E94FA023E
S1130390C7E0D0E010E0F12C97010C2E02C0359597
S11303A027950A94E2F720FF04C081E00E9400032D
S11303B003C080E00E94000381E00E94FA02110F52
S11303C00E9406038111116080E00E94FA022197C5
S11303D018F7812FDF91CF911F91FF90EF9008952F
S11303E0CF9380E00E94F4028FEF0E94BF01C82FD8
S11303F081E00E94F4028C2FCF9108950E94F001B5
S1130400982F907381E009F080E008950F931F9373
S1130410CF93DF93662371F0EC016150062F10E057
S11304200F5F1F4F080F191F89910E94BF01C0174A
S1130430D107D1F7DF91CF911F910F910895CF93F9
S1130440DF93C82FD62F80E00E94F4028C2F8F7187
S113045080620E94BF018D2F0E94BF0181E00E9433
S1130460F402DF91CF91089580E00E94F40282EEBD
S11304700E94BF0181E00E94F40260E787E00E94CD
S11304801F0280E00E94EE026BE080E00E941F02E7
S113049081E00E94EE02089560931902682F85E0BE
S11304A00E941F0260E081E10E941F026091190214
S11304B082E10E941F0260E083E10E941F0260E06B
S11304C084E10E941F0260E085E10E941F0260E057
S11304D086E10E941F0266E086E00E941F0268E037
S11304E080E00E941F0263E081E00E941F0263E03B
S11304F082E00E941F026FE484E00E941F0260E019
S11305008CE10E941F020E943402089560E787E094
S11305100E941F026AE080E00E941F020895CF93A8
S1130520DF93EC0180E00E94EE020E94860280E0EC
S11305300E94F40281EE0E94BF0181E00E94F40255
S113054080E00E94F40280EA0E94BF0160911902D7
S1130550CE010E94060281E00E94F40281E00E9422
S1130560EE02DF91CF91089580E00E94EE0268E0F0
S113057080E00E941F0208950F931F93CF93DF938F
S1130580C82F8B01D42F80E00E94F4028C2F8F712E
S113059080620E94BF016D2FC8010E94060281E0A3
S11305A00E94F402DF91CF911F910F910895CF9390
S11305B0DF93EC0180E00E94EE0245E0BE018BE097
S11305C00E94BC0281E00E94EE02DF91CF91089567
S11305D03D9A3C9A259A239A24980895882311F0E9
S11305E0459A089545980895882311F0449A0895EA
S11305F044980895882311F02D9A08952D9808950C
S1130600882311F02B9A08952B98089583B1807153
S11306100895FC0160830895FC0172836183089549
S1130620EF92FF920F931F93CF93DF938C017B0183
S1130630FC0180811F928F9380E191E09F938F93BF
S1130640C0E0CF93D0E0DF930E94E405F80161811C
S113065072818D2F9C2F0E94D20560E070E08D2F57
S11306609C2F0E94D2056D2F7C2FC7010E94DD05AF
S11306700F900F900F900F900F900F90DF91CF91EC
S11306801F910F91FF90EF900895E0E7F0E08081D3
S11306908160808378940895E1EBF0E08081846048
S11306A080838081826080838081816080831092D6
S11306B0B2000E9445030895E0E7F0E08081808362
S11306C008951F920F920FB60F9211242F933F9308
S11306D04F935F938F939F93EF93FF932091C00069
S11306E03091C60028718091160190E001968F77B1
S11306F099274091150150E08417950739F08093AC
S11307001601FC01E75EFE4F308301C022E0209316
S11307101401FF91EF919F918F915F914F913F91C0
S11307202F910F900FBE0F901F9018951F920F924C
S11307300FB60F9211248F939F93EF93FF93909191
S1130740180180911701981779F08091170190E0B2
S113075001968F77992780931701FC01E756FE4F86
S113076080818093C60005C0E1ECF0E080818F7D3C
S11307708083FF91EF919F918F910F900FBE0F9007
S11307801F9018955058BB27AA270E94DA030C948F
S11307902B050E941D0538F00E94240520F039F431
S11307A09F3F19F426F40C941A050EF4E095E7FB28
S11307B00C941405E92F0E943C0558F3BA176207FC
S11307C073078407950720F079F4A6F50C945E0569
S11307D00EF4E0950B2EBA2FA02D0B01B901900158
S11307E00C01CA01A0011124FF27591B99F0593F9C
S11307F050F4503E68F11A16F040A22F232F342FE4
S11308004427585FF3CF469537952795A795F04031
S11308105395C9F77EF41F16BA0B620B730B840B46
S1130820BAF09150A1F0FF0FBB1F661F771F881FFE
S1130830C2F70EC0BA0F621F731F841F48F4879556
S113084077956795B795F7959E3F08F0B0CF939548
S1130850880F08F09927EE0F9795879508950E94C1
S113086043040C942B050E94240558F00E941D0596
S113087040F029F45F3F29F00C94140551110C94B5
S11308805F050C941A050E943C0568F39923B1F3A3
S1130890552391F3951B550BBB27AA2762177307A2
S11308A0840738F09F5F5F4F220F331F441FAA1F36
S11308B0A9F335D00E2E3AF0E0E832D091505040F2
S11308C0E695001CCAF72BD0FE2F29D0660F771FA0
S11308D0881FBB1F261737074807AB07B0E809F086
S11308E0BB0B802DBF01FF2793585F4F3AF09E3F0B
S11308F0510578F00C9414050C945F055F3FE4F304
S1130900983ED4F3869577956795B795F7959F5F4D
S1130910C9F7880F911D9695879597F90895E1E099
S1130920660F771F881FBB1F621773078407BA07F8
S113093020F0621B730B840BBA0BEE1F88F7E09553
S113094008950E94A8046894B1110C945F05089559
S11309500E94440588F09F5798F0B92F9927B75102
S1130960B0F0E1F0660F771F881F991F1AF0BA954F
S1130970C9F714C0B13091F00E945E05B1E008954A
S11309800C945E05672F782F8827B85F39F0B93F3C
S1130990CCF3869577956795B395D9F73EF4909502
S11309A08095709561957F4F8F4F9F4F0895E89480
S11309B009C097FB3EF490958095709561957F4FA3
S11309C08F4F9F4F9923A9F0F92F96E9BB27939551
S11309D0F695879577956795B795F111F8CFFAF461
S11309E0BB0F11F460FF1BC06F5F7F4F8F4F9F4F92
S11309F016C0882311F096E911C0772321F09EE8F0
S1130A00872F762F05C0662371F096E8862F70E055
S1130A1060E02AF09A95660F771F881FDAF7880F2F
S1130A209695879597F9089597F99F6780E870E000
S1130A3060E008959FEF80EC089500240A94161650
S1130A40170618060906089500240A9412161306B8
S1130A50140605060895092E0394000C11F4882346
S1130A6052F0BB0F40F4BF2B11F460FF04C06F5F62
S1130A707F4F8F4F9F4F089557FD9058440F551F38
S1130A8059F05F3F71F04795880F97FB991F61F00C
S1130A909F3F79F087950895121613061406551F83
S1130AA0F2CF4695F1DF08C0161617061806991FEF
S1130AB0F1CF86957105610508940895E894BB27E4
S1130AC066277727CB0197F908950E9478050C943F
S1130AD02B050E941D0538F00E94240520F0952363
S1130AE011F00C9414050C941A0511240C945F0550
S1130AF00E943C0570F3959FC1F3950F50E0551F7C
S1130B00629FF001729FBB27F00DB11D639FAA275E
S1130B10F00DB11DAA1F649F6627B00DA11D661FAD
S1130B20829F2227B00DA11D621F739FB00DA11DCE
S1130B30621F839FA00D611D221F749F3327A00D88
S1130B40611D231F849F600D211D822F762F6A2F24
S1130B5011249F5750409AF0F1F088234AF0EE0F89
S1130B60FF1FBB1F661F771F881F91505040A9F7B6
S1130B709E3F510580F00C9414050C945F055F3F73
S1130B80E4F3983ED4F3869577956795B795F795F2
S1130B90E7959F5FC1F7FE2B880F911D969587956A
S1130BA097F90895FB01DC010D900020E9F71197F6
S1130BB001900D920020E1F70895FB01DC01019002
S1130BC00D920020E1F70895AEE0B0E0EAEEF5E022
S1130BD00C94A5080D891E8986E08C831A830983E9
S1130BE08FEF9FE79E838D83AE01475E5F4F6F89D2
S1130BF0788DCE0101960E940606EF81F885E00FFC
S1130C00F11F10822E96E4E00C94C108ABE0B0E032
S1130C10ECE0F6E00C9497086C017B018A01FC017E
S1130C2017821682838181FFCCC1CE0101963C01DB
S1130C30F6019381F70193FD859193FF81917F01E3
S1130C40882309F4BAC1853239F493FD859193FF61
S1130C5081917F01853229F4B60190E00E94FD075D
S1130C60E7CF912C212C312CFFE1F315D8F08B32F6
S1130C7079F038F4803279F08332A1F4232D2061A5
S1130C801DC08D3261F0803369F4232D216016C0BC
S1130C90832D8260382EE32DE4603E2E2AC0F32D8E
S1130CA0F8601DC037FC2DC020ED280F2A3040F01D
S1130CB08E32B9F436FC81C1232D2064322E19C042
S1130CC036FE06C08AE0989E200D1124922E11C093
S1130CD0EAE02E9E200D1124222EF32DF0623F2EE9
S1130CE008C08C3621F4832D8068382E02C08836E3
S1130CF041F4F70193FD859193FF81917F01811167
S1130D00B3CF982F9F7D9554933028F40C5F1F4FD9
S1130D109FE399830DC0833631F0833771F08335B7
S1130D2009F059C021C0F801808189830E5F1F4FEB
S1130D3088248394912C530113C02801F2E04F0EB0
S1130D40511CF801A080B18036FE03C0692D70E00B
S1130D5002C06FEF7FEFC5010E94F2074C018201D0
S1130D60F32DFF773F2E16C0280122E0420E511CBE
S1130D70F801A080B18036FE03C0692D70E002C086
S1130D806FEF7FEFC5010E94E7074C01F32DF06878
S1130D903F2E820133FC1BC0822D90E088169906F9
S1130DA0B0F4B60180E290E00E94FD072A94F4CFEB
S1130DB0F50137FC859137FE81915F01B60190E022
S1130DC00E94FD0721102A9421E0821A91088114BF
S1130DD0910471F7E8C0843611F0893641F5F801C1
S1130DE037FE07C060817181828193810C5F1F4F40
S1130DF008C060817181072E000C880B990B0E5F6F
S1130E001F4FF32DFF763F2E97FF09C090958095D5
S1130E10709561957F4F8F4F9F4FF0683F2E2AE06A
S1130E2030E0A3010E943908882E861845C0853712
S1130E3031F4232D2F7EB22E2AE030E025C0932DED
S1130E40997FB92E8F36C1F018F4883579F0B5C082
S1130E50803719F0883721F0B0C0E92FE061BE2E49
S1130E60B4FE0DC0FB2DF460BF2E09C034FE0AC0D1
S1130E70292F2660B22E06C028E030E005C020E10C
S1130E8030E002C020E132E0F801B7FE07C0608123
S1130E907181828193810C5F1F4F06C060817181D3
S1130EA080E090E00E5F1F4FA3010E943908882E56
S1130EB08618FB2DFF773F2E36FE0DC0232D2E7F87
S1130EC0A22E891458F434FE0BC032FC09C0832DC1
S1130ED08E7EA82E05C0B82CA32C03C0B82C01C04C
S1130EE0B92CA4FE0FC0FE01E80DF11D80818033F2
S1130EF021F49A2D997EA92E09C0A2FE06C0B394AE
S1130F00B39404C08A2D867809F0B394A3FC11C06D
S1130F10A0FE06C0B21488F4280C922C9B180EC0B4
S1130F20B21460F4B60180E290E00E94FD07B3942D
S1130F30F7CFB21418F42B1802C0982C212CA4FE5D
S1130F4010C0B60180E390E00E94FD07A2FE17C026
S1130F50A1FC03C088E790E002C088E590E0B601F8
S1130F600CC08A2D867859F0A1FE02C08BE201C024
S1130F7080E2A7FC8DE2B60190E00E94FD0789148F
S1130F8038F4B60180E390E00E94FD079A94F7CF0D
S1130F908A94F301E80DF11D8081B60190E00E946E
S1130FA0FD078110F5CF222009F442CEB60180E27C
S1130FB090E00E94FD072A94F6CFF601868197817E
S1130FC002C08FEF9FEF2B96E2E10C94B308FC0173
S1130FD00590615070400110D8F7809590958E0F60
S1130FE09F1F0895FC016150704001900110D8F7D3
S1130FF0809590958E0F9F1F08950F931F93CF9305
S1131000DF93FB01238121FD03C08FEF9FEF2CC0F1
S113101022FF16C046815781248135814217530728
S113102044F4A081B1819D012F5F3F4F3183208320
S11310308C93268137812F5F3F4F3783268314C0DB
S11310408B01EC01FB010084F185E02D0995892BCE
S1131050E1F6D80116968D919C91179701961796F3
S11310609C938E931697CE01DF91CF911F910F9190
S11310700895FA01AA27283051F1203181F1E8942A
S11310806F936E7F6E5F7F4F8F4F9F4FAF4FB1E077
S11310903ED0B4E03CD0670F781F891F9A1FA11D72
S11310A0680F791F8A1F911DA11D6A0F711D811D73
S11310B0911DA11D20D009F468943F912AE0269F38
S11310C011243019305D3193DEF6CF010895462F97
S11310D04770405D4193B3E00FD0C9F7F6CF462F78
S11310E04F70405D4A3318F0495D31FD40524193E1
S11310F002D0A9F7EACFB4E0A6959795879577959E
S11311006795BA95C9F700976105710508959B0124
S1131110AC010A2E06945795479537952795BA95AD
S1131120C9F7620F731F841F951FA01D08952F9286
S11311303F924F925F926F927F928F929F92AF9263
S1131140BF92CF92DF92EF92FF920F931F93CF93B0
S1131150DF93CDB7DEB7CA1BDB0B0FB6F894DEBF47
S11311600FBECDBF09942A88398848885F846E846D
S11311707D848C849B84AA84B984C884DF80EE80B7
S1131180FD800C811B81AA81B981CE0FD11D0FB6C0
S1131190F894DEBF0FBECDBFED010895F894FFCFE4
S11311A01EE7E7E7E7E7253032642E253032640096
S10711B025642C0082
S9030000FC
