:100000000C942A000C9447000C9447000C94470071
:100010000C9447000C9447000C9447000C94470044
:100020000C9447000C9447000C9447000C94F80380
:100030000C9447000C9447000C9447000C94470024
:100040000C9447000C9447000C9447000C94470014
:100050000C94470011241FBECFE5D4E0DEBFCDBF16
:1000600011E0A0E6B0E0E4EBF4E102C005900D92EF
:10007000A83EB107D9F722E0A8EEB1E001C01D9279
:10008000A139B207E1F70E942F040C94580A0C948E
:1000900000002F923F924F925F926F927F928F92C9
:1000A0009F92AF92BF92CF92DF92EF92FF920F9307
:1000B0001F93CF93DF93CDB7DEB760970FB6F89459
:1000C000DEBF0FBECDBF9A8389838DB79EB79C8755
:1000D0008B87E981FA8101900020E9F731975F0170
:1000E00089819A81A81AB90ABB24EDB7FEB7EA192B
:1000F000FB090FB6F894FEBF0FBEEDBF8DB79EB7DC
:1001000001961C018091E8019091E901A091EA011A
:10011000B091EB01803F984DAF4FBF4F61F410920B
:10012000E8011092E9011092EA011092EB0182E0DD
:1001300080939002A5C0C12CD12C7601C5010197F6
:100140004101880E991E8F839887C10101969C8377
:100150008B83BE82AD829A8689868091900284309C
:1001600011F410929002E0EFF1E001900020E9F725
:100170003197CF01805F9140A0E0B0E00097A105EA
:10018000B10509F45FC0E7EBFBE03197F1F700C080
:100190000000FFEFCF1ADF0AEF0AFF0AE0EFF1E0FD
:1001A00001900020E9F731979F01205F314049011C
:1001B000A12CB12C88169906AA06BB0609F042C0EC
:1001C00081149104A104B104E9F100EF11E0412C84
:1001D000512C612C712CCD86DE86EF86F88AE9845D
:1001E000FA84CF80D8844C2D5D2D6B817C81C10138
:1001F0000E944607F80181918F01F70180834D81AC
:100200005E8169817A81C1010E945807892B61F45E
:100210001092E8011092E9011092EA011092EB01AC
:1002200081E0809390022CC0FFEF4F1A5F0A6F0AA3
:100230007F0A481459046A047B04A9F6CD84DE843D
:10024000EF84F88887EB9BE00197F1F700C000008E
:100250009FEFC91AD90AE90AF90A8091E801909139
:10026000E901A091EA01B091EB01805F984DAF4F99
:10027000BF4FC816D906EA06FB0608F46ECF4FCF6B
:10028000EB85FC850FB6F894FEBF0FBEEDBF609600
:100290000FB6F894DEBF0FBECDBFDF91CF911F9197
:1002A0000F91FF90EF90DF90CF90BF90AF909F9015
:1002B0008F907F906F905F904F903F902F90089518
:1002C00080EAE0EFF1E0DF011D928A95E9F71092F4
:1002D000EF011092EE011092ED011092EC010895E1
:1002E000CF93DF93EC0184E080939002CE010E94D3
:1002F0004900909190029923C9F3DF91CF9108951D
:100300000E94700181E090919002923009F480E0A7
:1003100008950F931F93CF93DF938C01EB010E94FD
:100320006001C8010E94D10488EC90E00E94D104D1
:10033000CE010E948001DF91CF911F910F9108950E
:100340000F931F93CF93DF93CDB7DEB764970FB6AC
:10035000F894DEBF0FBECDBF8E010F5F1F4F94E13B
:10036000F80111929A95E9F71F928F9387E690E032
:100370009F938F931F930F930E9480071C8A60E6C0
:1003800070E0C8010E9489010F900F900F900F90AC
:100390000F900F9064960FB6F894DEBF0FBECDBFDE
:1003A000DF91CF911F910F9108950F931F93CF93DA
:1003B000DF93CDB7DEB764970FB6F894DEBF0FBEFC
:1003C000CDBF8E010F5F1F4F94E1F80111929A95F6
:1003D000E9F71F928F9385E790E09F938F931F9388
:1003E0000F930E9480071C8A60E670E0C8010E949B
:1003F00089010F900F900F900F900F900F906496BF
:100400000FB6F894DEBF0FBECDBFDF91CF911F9125
:100410000F910895CF93C5E060E670E082E890E028
:100420000E94890181110AC060E670E087E890E0CF
:100430000E948901811102C0C15071F7CF910895C6
:100440000F931F93CF93DF93CDB7DEB764970FB6AB
:10045000F894DEBF0FBECDBF8E010F5F1F4F94E13A
:10046000F80111929A95E9F71F928F9388E990E02D
:100470009F938F931F930F930E9480071C8A60E6BF
:1004800070E0C8010E9489010F900F900F900F90AB
:100490000F900F9064960FB6F894DEBF0FBECDBFDD
:1004A000DF91CF911F910F9108950F931F93CF93D9
:1004B000DF93CDB7DEB7EC970FB6F894DEBF0FBE73
:1004C000CDBF8E010F5F1F4F2CE3F80111922A95CB
:1004D000E9F77F936F939F938F9385EA90E09F93C3
:1004E0008F931F930F930E9480071CAE68EB70E000
:1004F000C8010E9489010FB6F894DEBF0FBECDBFC0
:10050000811122C06BEC70E080EF91E00E946607E1
:10051000892BE1F464ED70E080EF91E00E946607C2
:10052000892BB1F46DED70E080EF91E00E946607D9
:10053000892B81F466EE70E080EF91E00E946607FF
:10054000892B51F485E009C080E007C081E005C037
:1005500082E003C083E001C084E0EC960FB6F8941B
:10056000DEBF0FBECDBFDF91CF911F910F910895D8
:1005700060E670E08FEE90E00E9489016CEF70E021
:1005800080EF91E00E946607892BD1F465E071E06D
:1005900080EF91E00E946607892BA1F46EE071E084
:1005A00080EF91E00E946607892B71F467E171E0AA
:1005B00080EF91E00E946607892B41F484E0089562
:1005C00080E0089581E0089582E0089583E0089531
:1005D000DF92EF92FF920F931F93CF93DF93CDB7EC
:1005E000DEB7EC970FB6F894DEBF0FBECDBFD82EA6
:1005F000162F072FF42EE52EFE0131969CE3DF0126
:100600001D929A95E9F760E271E089E291E00E941B
:1006100089018823D1F0EF92FF920F931F9384E317
:1006200091E09F938F938E010F5F1F4F1F930F9346
:100630000E9480076EE471E0C8010E9489010FB634
:10064000F894DEBF0FBECDBF1BC0EF92FF920F9399
:100650001F931F92DF9288E591E09F938F938E0105
:100660000F5F1F4F1F930F930E9480076EE471E08E
:10067000C8010E9489010FB6F894DEBF0FBECDBF3E
:10068000811106C080919002823021F085E003C084
:1006900081E001C082E0EC960FB6F894DEBF0FBE99
:1006A000CDBFDF91CF911F910F91FF90EF90DF9021
:1006B0000895EF92FF920F931F93CF93DF93CDB7DF
:1006C000DEB764970FB6F894DEBF0FBECDBF8C01C6
:1006D000CE0101967C0184E1F70111928A95E9F738
:1006E000F80101900020E9F79F01201B310B2F5FDB
:1006F0003F4F3F932F9387E791E09F938F93FF9214
:10070000EF920E9480071C8A65E871E0C7010E9491
:1007100089016DE871E0C8010E9489010F900F9076
:100720000F900F900F900F90811106C08091900252
:10073000823021F085E003C081E001C082E0649650
:100740000FB6F894DEBF0FBECDBFDF91CF911F91E2
:100750000F91FF90EF9008958091EE019091EF013D
:100760002091EC013091ED01821B930B08952091B3
:10077000EC013091ED018091EE019091EF0128178D
:10078000390784F48091EC019091ED019C012F5F79
:100790003F4F3093ED012093EC01FC01E051FE4FFF
:1007A000808108950E94600180E008950F931F9357
:1007B000CF93DF932FE739EA43E0215030404040A8
:1007C000E1F700C00000C82FD92F00E010E005C0FD
:1007D0000F5F1F4F0E94B70389930E94AC03181646
:1007E0001906B4F3C801DF91CF911F910F910895BD
:1007F0001F920F920FB60F9211242F938F939F93F6
:10080000EF93FF932FB7F894E091EE01F091EF0191
:100810008CB1E051FE4F80838091EE019091EF0109
:1008200001969093EF018093EE018091EE019091FB
:10083000EF01803A910541F41092EF011092EE0120
:100840001092ED011092EC012FBFFF91EF919F915B
:100850008F912F910F900FBE0F901F901895CF93EF
:10086000DF93CDB7DEB7C659D1090FB6F894DEBF16
:100870000FBECDBF60E072EC81E090E00E94A90461
:1008800078940E940A028823E1F383E00E94200208
:1008900080E00E94D50180E00E94A0010E94B80281
:1008A000833031F469E971E082EA91E00E945502F7
:1008B0004AEA51E06DEA71E080E00E94E8020F2E02
:1008C000F6E9BF2EF02D8E010F5F1F4F0F2EF0ECBB
:1008D000CF2EF1E0DF2EF02D0F2EF7ECEF2EF1E012
:1008E000FF2EF02D0E94B802833039F469E971E0DF
:1008F00082EA91E00E94550209C0823039F44AEA46
:1009000051E06DEA71E080E00E94E802F8012B2DD1
:1009100011922A95E9F7DF92CF92FF92EF921F93FF
:100920000F930E948007C8010E945903C8010E94CA
:10093000D6038FEF98EFE5E181509040E040E1F77A
:1009400000C000000F900F900F900F900F900F902D
:10095000C9CF599A2AB128692AB920B5266820BD7D
:100960000E94F50520E030E040E051E40E9483065B
:100970009B01AC0160E07BE187E39BE40E944D05B5
:1009800020E030E040E85FE30E94E0040E94F006CF
:100990000E94BF0569B970BD08958CB95D9BFECFFB
:1009A0000895CF93DF93EC018881882331F021965D
:1009B0000E94CD0489918111FBCFDF91CF910895E1
:1009C0005058BB27AA270E94F8040C9449060E949D
:1009D0003B0638F00E94420620F039F49F3F19F49C
:1009E00026F40C9438060EF4E095E7FB0C943206DE
:1009F000E92F0E945A0658F3BA1762077307840753
:100A0000950720F079F4A6F50C947C060EF4E09599
:100A10000B2EBA2FA02D0B01B90190010C01CA01B8
:100A2000A0011124FF27591B99F0593F50F4503E63
:100A300068F11A16F040A22F232F342F4427585F55
:100A4000F3CF469537952795A795F0405395C9F76D
:100A50007EF41F16BA0B620B730B840BBAF0915025
:100A6000A1F0FF0FBB1F661F771F881FC2F70EC0C4
:100A7000BA0F621F731F841F48F487957795679597
:100A8000B795F7959E3F08F0B0CF9395880F08F083
:100A90009927EE0F9795879508950E9461050C940C
:100AA00049060E94420658F00E943B0640F029F495
:100AB0005F3F29F00C94320651110C947D060C9482
:100AC00038060E945A0668F39923B1F3552391F32F
:100AD000951B550BBB27AA2762177307840738F0AD
:100AE0009F5F5F4F220F331F441FAA1FA9F335D00A
:100AF0000E2E3AF0E0E832D091505040E695001CBE
:100B0000CAF72BD0FE2F29D0660F771F881FBB1F77
:100B1000261737074807AB07B0E809F0BB0B802D55
:100B2000BF01FF2793585F4F3AF09E3F510578F081
:100B30000C9432060C947D065F3FE4F3983ED4F3A8
:100B4000869577956795B795F7959F5FC9F7880F55
:100B5000911D9695879597F90895E1E0660F771FA7
:100B6000881FBB1F621773078407BA0720F0621B38
:100B7000730B840BBA0BEE1F88F7E09508950E9463
:100B8000C6056894B1110C947D0608950E94620612
:100B900088F09F5798F0B92F9927B751B0F0E1F03E
:100BA000660F771F881F991F1AF0BA95C9F714C0EE
:100BB000B13091F00E947C06B1E008950C947C065F
:100BC000672F782F8827B85F39F0B93FCCF3869527
:100BD00077956795B395D9F73EF490958095709584
:100BE00061957F4F8F4F9F4F0895E89409C097FB01
:100BF0003EF490958095709561957F4F8F4F9F4FF4
:100C00009923A9F0F92F96E9BB279395F695879537
:100C100077956795B795F111F8CFFAF4BB0F11F4FA
:100C200060FF1BC06F5F7F4F8F4F9F4F16C08823A1
:100C300011F096E911C0772321F09EE8872F762FD7
:100C400005C0662371F096E8862F70E060E02AF018
:100C50009A95660F771F881FDAF7880F9695879504
:100C600097F9089597F99F6780E870E060E008952C
:100C70009FEF80EC089500240A94161617061806B4
:100C80000906089500240A94121613061406050690
:100C90000895092E0394000C11F4882352F0BB0F21
:100CA00040F4BF2B11F460FF04C06F5F7F4F8F4F84
:100CB0009F4F089557FD9058440F551F59F05F3FBF
:100CC00071F04795880F97FB991F61F09F3F79F06E
:100CD00087950895121613061406551FF2CF4695F0
:100CE000F1DF08C0161617061806991FF1CF869572
:100CF0007105610508940895E894BB276627772756
:100D0000CB0197F908950E9496060C9449060E941B
:100D10003B0638F00E94420620F0952311F00C9417
:100D200032060C94380611240C947D060E945A0653
:100D300070F3959FC1F3950F50E0551F629FF0012E
:100D4000729FBB27F00DB11D639FAA27F00DB11D47
:100D5000AA1F649F6627B00DA11D661F829F2227D0
:100D6000B00DA11D621F739FB00DA11D621F839F57
:100D7000A00D611D221F749F3327A00D611D231F2D
:100D8000849F600D211D822F762F6A2F11249F577B
:100D900050409AF0F1F088234AF0EE0FFF1FBB1F7E
:100DA000661F771F881F91505040A9F79E3F51053D
:100DB00080F00C9432060C947D065F3FE4F3983E7D
:100DC000D4F3869577956795B795F795E7959F5FE7
:100DD000C1F7FE2B880F911D9695879597F9089579
:100DE0000E946206E8F09E37E8F09639B8F49E3823
:100DF00048F4672F782F8827985FF9CF86957795E5
:100E0000679593959539D0F3B62FB1706B0F711D1F
:100E1000811D20F487957795679593950C94140719
:100E20000C942F070C947D06882371F4772321F00E
:100E30009850872B762F07C0662311F499270DC091
:100E40009051862B70E060E02AF09A95660F771F2C
:100E5000881FDAF7880F9695879597F908959F3F31
:100E600031F0915020F4879577956795B795880F65
:100E7000911D9695879597F90895FB01DC0102C0B5
:100E800001900D9241505040D8F7089568177907A6
:100E900068F4FB01DC01E40FF51FA40FB51F02C0CD
:100EA00002900E9241505040D8F708950C943D079F
:100EB000FB01DC014150504030F08D9101908019D0
:100EC00019F40020B9F7881B990B0895FB01519183
:100ED0005523A9F0BF01DC014D9145174111E1F700
:100EE00059F4CD010190002049F04D914015411178
:100EF000C9F3FB014111EFCF81E090E00197089524
:100F0000AEE0B0E0E6E8F7E00C942F0A0D891E8908
:100F100086E08C831A8309838FEF9FE79E838D83FE
:100F2000AE01475E5F4F6F89788DCE0101960E94BA
:100F3000A3072F813885F801E20FF31F10822E9648
:100F4000E4E00C944B0AACE0B0E0E9EAF7E00C9482
:100F5000210A7C016B018A01FC01178216828381C0
:100F600081FFBDC1CE0101964C01F7019381F601CD
:100F700093FD859193FF81916F01882309F4ABC1A3
:100F8000853239F493FD859193FF81916F0185320C
:100F900029F4B70190E00E948B09E7CF512C312C46
:100FA00020E02032A0F48B3269F030F4803259F026
:100FB000833269F420612CC08D3239F0803339F4EA
:100FC000216026C02260246023C0286021C027FD44
:100FD00027C030ED380F3A3078F426FF06C0FAE02B
:100FE0005F9E300D1124532E13C08AE0389E300DC1
:100FF0001124332E20620CC08E3221F426FD6BC1E9
:10100000206406C08C3611F4206802C0883641F492
:10101000F60193FD859193FF81916F018111C1CFFD
:10102000982F9F7D9554933028F40C5F1F4FFFE35A
:10103000F9830DC0833631F0833771F0833509F0C1
:101040005BC022C0F801808189830E5F1F4F44245A
:101050004394512C540115C03801F2E06F0E711CFD
:10106000F801A080B18026FF03C0652D70E002C0AA
:101070006FEF7FEFC5012C870E9480092C0183014F
:101080002C852F77222E17C03801F2E06F0E711CCD
:10109000F801A080B18026FF03C0652D70E002C07A
:1010A0006FEF7FEFC5012C870E9475092C012C85FD
:1010B0002068222E830123FC1BC0832D90E048165C
:1010C0005906B0F4B70180E290E00E948B093A948F
:1010D000F4CFF50127FC859127FE81915F01B701CF
:1010E00090E00E948B0931103A94F1E04F1A5108B8
:1010F0004114510471F7E5C0843611F0893639F591
:10110000F80127FF07C060817181828193810C5FA4
:101110001F4F08C060817181072E000C880B990B4E
:101120000E5F1F4F2F76722E97FF09C09095809506
:10113000709561957F4F8F4F9F4F2068722E2AE0E8
:1011400030E0A4010E94C309A82EA81844C0853726
:1011500029F42F7EB22E2AE030E025C0F22FF97F4D
:10116000BF2E8F36C1F018F4883579F0B4C08037BF
:1011700019F0883721F0AFC02F2F2061B22EB4FEB6
:101180000DC08B2D8460B82E09C024FF0AC09F2F8C
:101190009660B92E06C028E030E005C020E130E0BE
:1011A00002C020E132E0F801B7FE07C06081718122
:1011B000828193810C5F1F4F06C06081718180E046
:1011C00090E00E5F1F4FA4010E94C309A82EA8182B
:1011D000FB2DFF777F2E76FE0BC0372D3E7FA514AB
:1011E00050F474FE0AC072FC08C0372D3E7E05C064
:1011F000BA2C372D03C0BA2C01C0B52C34FF0DC05A
:10120000FE01EA0DF11D8081803311F4397E09C0A1
:1012100032FF06C0B394B39404C0832F867809F0DC
:10122000B39433FD13C030FF06C05A2CB31418F426
:10123000530C5B18B32CB31468F4B70180E290E050
:101240003C870E948B09B3943C85F5CFB31410F40E
:101250003B1801C0312C34FF12C0B70180E390E08D
:101260003C870E948B093C8532FF17C031FD03C0CB
:1012700088E790E002C088E590E0B7010CC0832FBA
:10128000867859F031FF02C08BE201C080E237FD61
:101290008DE2B70190E00E948B09A51438F4B701E4
:1012A00080E390E00E948B095A94F7CFAA94F4014E
:1012B000EA0DF11D8081B70190E00E948B09A11019
:1012C000F5CF332009F451CEB70180E290E00E94BF
:1012D0008B093A94F6CFF7018681978102C08FEF90
:1012E0009FEF2C96E2E10C943D0AFC0105906150C1
:1012F00070400110D8F7809590958E0F9F1F08952C
:10130000FC016150704001900110D8F780959095D4
:101310008E0F9F1F08950F931F93CF93DF93FB01B1
:10132000238121FD03C08FEF9FEF28C022FF16C04D
:1013300046815781248135814217530744F4A081A7
:10134000B1819D012F5F3F4F318320838C93268194
:1013500037812F5F3F4F3783268310C0EB01092F62
:10136000182F0084F185E02D0995892BE1F68E81F7
:101370009F8101969F838E83812F902FDF91CF9144
:101380001F910F910895FA01AA27283051F12031B9
:1013900081F1E8946F936E7F6E5F7F4F8F4F9F4F09
:1013A000AF4FB1E03ED0B4E03CD0670F781F891F4B
:1013B0009A1FA11D680F791F8A1F911DA11D6A0F19
:1013C000711D811D911DA11D20D009F468943F91CC
:1013D0002AE0269F11243019305D3193DEF6CF01CB
:1013E0000895462F4770405D4193B3E00FD0C9F791
:1013F000F6CF462F4F70405D4A3318F0495D31FDFE
:101400004052419302D0A9F7EACFB4E0A695979550
:10141000879577956795BA95C9F700976105710526
:1014200008959B01AC010A2E069457954795379570
:101430002795BA95C9F7620F731F841F951FA01DCA
:1014400008952F923F924F925F926F927F928F9268
:101450009F92AF92BF92CF92DF92EF92FF920F9343
:101460001F93CF93DF93CDB7DEB7CA1BDB0B0FB64D
:10147000F894DEBF0FBECDBF09942A88398848880A
:101480005F846E847D848C849B84AA84B984C884A0
:10149000DF80EE80FD800C811B81AA81B981CE0F97
:1014A000D11D0FB6F894DEBF0FBECDBFED0108957C
:0414B000F894FFCFDE
:1014B4000D0A4F4B0D0A0041542B4349504D4F44E4
:1014C400453D25640041542B4349504D55583D2515
:1014D4006400415445300041540041542B43495069
:1014E400434C4F53453D310041542B43574D4F44DA
:1014F400453D25640041542B43574A41503D222524
:1015040073222C22257322000D0A57494649204391
:101514004F4E4E45435445440D0A002B43574A4110
:10152400503A31002B43574A41503A32002B43572B
:101534004A41503A33002B43574A41503A34004110
:10154400542B43495053544154555300535441541C
:1015540055533A32005354415455533A330053547B
:10156400415455533A34005354415455533A350079
:101574004349504D55583A300041542B4349504D3E
:1015840055583F0041542B43495053544152543D04
:1015940022544350222C222573222C257300434FBE
:1015A4004E4E4543540D0A0041542B434950535465
:1015B4004152543D222564222C22544350222C2291
:1015C4002573222C25730041542B43495053454E17
:1015D400443D2564000D0A4F4B0D0A3E000D0A538D
:1015E400454E44204F4B0D0A006D68313633363872
:1015F400370045572D574946490038300061706916
:101604002E7468696E67737065616B2E636F6D000D
:1016140031313939323200474554202F6368616EC5
:101624006E656C732F25732F66656564732F6C610B
:0816340073742E747874000039
:00000001FF
