S01A000041546D656761333238705F455350383236362E73726563B1
S11300000C9434000C9451000C9451000C94510045
S11300100C9451000C9451000C9451000C94510018
S11300200C9451000C9451000C9451000C94510008
S11300300C9451000C9451000C9451000C945100F8
S11300400C9451000C9451000C94F3030C94510043
S11300500C9451000C9451000C9451000C945100D8
S11300600C9451000C94510011241FBECFEFD8E022
S1130070DEBFCDBF12E0A0E0B1E0E2EEF4E102C0E9
S113008005900D92A438B107D9F723E0A4E8B2E0B3
S113009001C01D92AD32B207E1F70E942B040C940B
S11300A06F0A0C9400002F923F924F925F926F92CE
S11300B07F928F929F92AF92BF92CF92DF92EF92F4
S11300C0FF920F931F93CF93DF93CDB7DEB72C9797
S11300D00FB6F894DEBF0FBECDBF9E838D832DB7C0
S11300E03EB73C872B87FC0101900020E9F731974C
S11300F05F01A81AB90ABB24A501415051095887C8
S11301004F838DB79EB78A199B090FB6F8949EBF8B
S11301100FBE8DBFADB7BEB711964D01809184025D
S113012090918502A0918602B0918702803F984DFC
S1130130AF4FBF4F61F41092840210928502109267
S113014086021092870282E080932C039BC019825E
S11301501A821B821C822F803884280C391C94013B
S11301602F5F3F4F3A87298780912C03843011F405
S113017010922C03ECE8F2E001900020E9F73197AB
S1130180CF018C5892406C01E12CF12CC114D104A4
S1130190E104F10409F451C08FE99FE00197F1F7FC
S11301A000C0000029813A814B815C812F5F3F4F61
S11301B04F4F5F4F29833A834B835C83ECE8F2E033
S11301C001900020E9F73197CF018C589240A0E0CC
S11301D0B0E0C816D906EA06FB0679F50CE812E089
S11301E0412C512C32014F81588569857A85C4018F
S11301F00E944B07D8018D918D01F1018083A501E7
S11302006D817E81C4010E945D07892B61F4109287
S1130210840210928502109286021092870281E075
S113022080932C032FC0FFEF4F1A5F0A6F0A7F0AD7
S11302304C145D046E047F04B1F68FE99FE00197CE
S1130240F1F700C0000029813A814B815C812F5F66
S11302503F4F4F4F5F4F29833A834B835C83809199
S1130260840290918502A0918602B0918702805FFA
S1130270984DAF4FBF4F281739074A075B0708F45B
S113028073CF59CF4B855C850FB6F8945EBF0FBE14
S11302904DBF2C960FB6F894DEBF0FBECDBFDF91D5
S11302A0CF911F910F91FF90EF90DF90CF90BF906F
S11302B0AF909F908F907F906F905F904F903F9002
S11302C02F90089580EAECE8F2E0DF011D928A9510
S11302D0E9F710928B0210928A021092890210920E
S11302E088020895CF93DF93EC0184E080932C037C
S11302F0CE010E94530080912C038823C9F3DF911F
S1130300CF9108950E94720181E090912C03923064
S113031009F480E008950F931F93CF93DF938C012A
S1130320EB010E946201C8010E94D60488E691E0B4
S11303300E94D604CE010E948201DF91CF911F91C9
S11303400F9108950F931F93CF93DF93CDB7DEB72B
S113035064970FB6F894DEBF0FBECDBF8E010F5F5A
S11303601F4F94E1F80111929A95E9F71F928F9328
S113037087E091E09F938F931F930F930E948507CB
S11303801C8A60E071E0C8010E948B010F900F90FD
S11303900F900F900F900F9064960FB6F894DEBFF5
S11303A00FBECDBFDF91CF911F910F9108950F9391
S11303B01F93CF93DF93CDB7DEB764970FB6F8944E
S11303C0DEBF0FBECDBF8E010F5F1F4F94E1F8015A
S11303D011929A95E9F71F928F9385E191E09F938B
S11303E08F931F930F930E9485071C8A60E071E02E
S11303F0C8010E948B010F900F900F900F900F90E7
S11304000F9064960FB6F894DEBF0FBECDBFDF9198
S1130410CF911F910F910895CF93C5E060E071E0F3
S113042082E291E00E948B0181110AC060E071E0D8
S113043087E291E00E948B01811102C0C15071F7E3
S1130440CF9108950F931F93CF93DF93CDB7DEB76A
S113045064970FB6F894DEBF0FBECDBF8E010F5F59
S11304601F4F94E1F80111929A95E9F71F928F9327
S113047088E391E09F938F931F930F930E948507C6
S11304801C8A60E071E0C8010E948B010F900F90FC
S11304900F900F900F900F9064960FB6F894DEBFF4
S11304A00FBECDBFDF91CF911F910F9108950F9390
S11304B01F93CF93DF93CDB7DEB7EC970FB6F894C5
S11304C0DEBF0FBECDBF8E010F5F1F4F2CE3F801BF
S11304D011922A95E9F77F936F939F938F9385E405
S11304E091E09F938F931F930F930E9485071CAEF7
S11304F068E571E0C8010E948B010FB6F894DEBF75
S11305000FBECDBF811122C06BE671E08CE892E092
S11305100E946B07892BE1F464E771E08CE892E0B8
S11305200E946B07892BB1F46DE771E08CE892E0CF
S11305300E946B07892B81F466E871E08CE892E0F5
S11305400E946B07892B51F485E009C080E007C045
S113055081E005C082E003C083E001C084E0EC9642
S11305600FB6F894DEBF0FBECDBFDF91CF911F91C0
S11305700F91089560E071E08FE891E00E948B0193
S11305806CE971E08CE892E00E946B07892BD1F44E
S113059065EA71E08CE892E00E946B07892BA1F474
S11305A06EEA71E08CE892E00E946B07892B71F48B
S11305B067EB71E08CE892E00E946B07892B41F4B1
S11305C084E0089580E0089581E0089582E008952C
S11305D083E00895DF92EF92FF920F931F93CF93DE
S11305E0DF93CDB7DEB7EC970FB6F894DEBF0FBE3E
S11305F0CDBFD82E162F072FF42EE52EFE013196EF
S11306008CE3DF011D928A95E9F760EC71E089ECD7
S113061091E00E948B018823A1F0EF92FF920F9347
S11306201F9384ED91E09F938F93CE0101969F9346
S11306308F930E9485070FB6F894DEBF0FBECDBF1F
S113064015C0EF92FF920F931F931F92DF928EEECD
S113065091E09F938F93CE0101969F938F930E9475
S113066085070FB6F894DEBF0FBECDBF6DE072E014
S1130670CE0101960E948B01811106C080912C034A
S1130680823021F085E003C081E001C082E0EC9675
S11306900FB6F894DEBF0FBECDBFDF91CF911F918F
S11306A00F91FF90EF90DF900895EF92FF920F93D8
S11306B01F93CF93DF93CDB7DEB764970FB6F8944B
S11306C0DEBF0FBECDBF8C01CE0101967C0184E15B
S11306D0F70111928A95E9F7F80101900020E9F7F2
S11306E0CF01801B910B01969F938F9387E192E03A
S11306F09F938F93FF92EF920E9485071C8A65E275
S113070072E0C7010E948B016DE272E0C8010E9491
S11307108B010F900F900F900F900F900F908111FD
S113072006C080912C03823021F085E003C081E073
S113073001C082E064960FB6F894DEBF0FBECDBF51
S1130740DF91CF911F910F91FF90EF9008958091C9
S11307508A0290918B022091880230918902821B37
S1130760930B0895209188023091890280918A0226
S113077090918B022817390784F480918802909114
S113078089029C012F5F3F4F309389022093880296
S1130790FC01E457FD4F808108950E94620180E0CE
S11307A008950F931F93CF93DF932FEF31EE44E01F
S11307B0215030404040E1F700C00000C82FD92F3D
S11307C000E010E005C00F5F1F4F0E94B203899341
S11307D00E94A70318161906B4F3C801DF91CF913C
S11307E01F910F9108951F920F920FB60F9211242B
S11307F02F938F939F93EF93FF932FB7F894E091E8
S11308008A02F0918B028091C600E457FD4F8083E9
S113081080918A0290918B02019690938B0280932F
S11308208A0280918A0290918B02803A910541F468
S113083010928B0210928A021092890210928802FE
S11308402FBFFF91EF919F918F912F910F900FBE2A
S11308500F901F901895CF93DF93CDB7DEB7C6598D
S1130860D1090FB6F894DEBF0FBECDBF60E072ECC5
S113087081E090E00E94A50478940E940C028823F1
S1130880E1F383E00E94220280E00E94D70180E02D
S11308900E94A2010E94BA02833031F469E372E03B
S11308A082E492E00E94570247E452E06AE472E074
S11308B080E00E94EA020F2EF6E9BF2EF02D8E0191
S11308C00F5F1F4F0F2EFDE5CF2EF2E0DF2EF02D30
S11308D00F2EF4E6EF2EF2E0FF2EF02D0E94BA0266
S11308E0833039F469E372E082E492E00E945702B3
S11308F009C0823039F447E452E06AE472E080E0EF
S11309000E94EA02F8012B2D11922A95E9F7DF9251
S1130910CF92FF92EF921F930F930E948507C80115
S11309200E945503C8010E94D1038FEF9BE4EDE1BF
S113093081509040E040E1F700C000000F900F901C
S11309400F900F900F900F90C9CFE1ECF0E0208151
S113095028612083E2ECF0E02081266020830E945D
S1130960FA0520E030E040E051E40E9488069B0153
S1130970AC0160E074E284E79BE40E94520520E04D
S113098030E040E85FE30E94E5040E94F5060E941F
S1130990C4056093C4007093C50008958093C60095
S11309A0E0ECF0E0808185FFFDCF0895CF93DF93E5
S11309B0EC018881882331F021960E94CE0489912C
S11309C08111FBCFDF91CF9108955058BB27AA27FF
S11309D00E94FD040C944E060E94400638F00E94CA
S11309E0470620F039F49F3F19F426F40C943D0691
S11309F00EF4E095E7FB0C943706E92F0E945F069E
S1130A0058F3BA17620773078407950720F079F43F
S1130A10A6F50C9481060EF4E0950B2EBA2FA02DAA
S1130A200B01B90190010C01CA01A0011124FF2797
S1130A30591B99F0593F50F4503E68F11A16F04092
S1130A40A22F232F342F4427585FF3CF4695379591
S1130A502795A795F0405395C9F77EF41F16BA0B56
S1130A60620B730B840BBAF09150A1F0FF0FBB1F04
S1130A70661F771F881FC2F70EC0BA0F621F731F4D
S1130A80841F48F4879577956795B795F7959E3FAA
S1130A9008F0B0CF9395880F08F09927EE0F97953B
S1130AA0879508950E9466050C944E060E94470699
S1130AB058F00E94400640F029F45F3F29F00C945E
S1130AC0370651110C9482060C943D060E945F0671
S1130AD068F39923B1F3552391F3951B550BBB2769
S1130AE0AA2762177307840738F09F5F5F4F220FAE
S1130AF0331F441FAA1FA9F335D00E2E3AF0E0E8A5
S1130B0032D091505040E695001CCAF72BD0FE2FEE
S1130B1029D0660F771F881FBB1F26173707480782
S1130B20AB07B0E809F0BB0B802DBF01FF2793583A
S1130B305F4F3AF09E3F510578F00C9437060C94C1
S1130B4082065F3FE4F3983ED4F3869577956795E4
S1130B50B795F7959F5FC9F7880F911D969587956F
S1130B6097F90895E1E0660F771F881FBB1F62178E
S1130B7073078407BA0720F0621B730B840BBA0B4C
S1130B80EE1F88F7E09508950E94CB056894B11193
S1130B900C94820608950E94670688F09F5798F087
S1130BA0B92F9927B751B0F0E1F0660F771F881F6E
S1130BB0991F1AF0BA95C9F714C0B13091F00E9488
S1130BC08106B1E008950C948106672F782F882759
S1130BD0B85F39F0B93FCCF3869577956795B395AF
S1130BE0D9F73EF490958095709561957F4F8F4F1E
S1130BF09F4F0895E89409C097FB3EF49095809523
S1130C00709561957F4F8F4F9F4F9923A9F0F92FCE
S1130C1096E9BB279395F695879577956795B7954C
S1130C20F111F8CFFAF4BB0F11F460FF1BC06F5F32
S1130C307F4F8F4F9F4F16C0882311F096E911C044
S1130C40772321F09EE8872F762F05C0662371F065
S1130C5096E8862F70E060E02AF09A95660F771F79
S1130C60881FDAF7880F9695879597F9089597F96D
S1130C709F6780E870E060E008959FEF80EC08953E
S1130C8000240A9416161706180609060895002467
S1130C900A9412161306140605060895092E0394E1
S1130CA0000C11F4882352F0BB0F40F4BF2B11F455
S1130CB060FF04C06F5F7F4F8F4F9F4F089557FDB4
S1130CC09058440F551F59F05F3F71F04795880FB6
S1130CD097FB991F61F09F3F79F08795089512164D
S1130CE013061406551FF2CF4695F1DF08C01616F9
S1130CF017061806991FF1CF8695710561050894AA
S1130D000895E894BB2766277727CB0197F90895C0
S1130D100E949B060C944E060E94400638F00E94E6
S1130D20470620F0952311F00C9437060C943D06E9
S1130D3011240C9482060E945F0670F3959FC1F300
S1130D40950F50E0551F629FF001729FBB27F00D75
S1130D50B11D639FAA27F00DB11DAA1F649F6627CA
S1130D60B00DA11D661F829F2227B00DA11D621F19
S1130D70739FB00DA11D621F839FA00D611D221FD3
S1130D80749F3327A00D611D231F849F600D211DB7
S1130D90822F762F6A2F11249F5750409AF0F1F03A
S1130DA088234AF0EE0FFF1FBB1F661F771F881FA3
S1130DB091505040A9F79E3F510580F00C9437069E
S1130DC00C9482065F3FE4F3983ED4F386957795BE
S1130DD06795B795F795E7959F5FC1F7FE2B880F49
S1130DE0911D9695879597F908950E946706E8F0F6
S1130DF09E37E8F09639B8F49E3848F4672F782F78
S1130E008827985FF9CF8695779567959395953957
S1130E10D0F3B62FB1706B0F711D811D20F487952F
S1130E207795679593950C9419070C9434070C9453
S1130E308206882371F4772321F09850872B762F2C
S1130E4007C0662311F499270DC09051862B70E0DA
S1130E5060E02AF09A95660F771F881FDAF7880FEB
S1130E609695879597F908959F3F31F0915020F416
S1130E70879577956795B795880F911D9695879572
S1130E8097F90895FB01DC0102C001900D924150D5
S1130E905040D8F708956817790768F4FB01DC011E
S1130EA0E40FF51FA40FB51F02C002900E9241502B
S1130EB05040D8F708950C944207FB01DC014150DF
S1130EC0504030F08D910190801919F40020B9F749
S1130ED0881B990B0895FB0151915523A9F0BF017B
S1130EE0DC014D9145174111E1F759F4CD01019011
S1130EF0002049F04D9140154111C9F3FB01411106
S1130F00EFCF81E090E001970895AEE0B0E0EBE828
S1130F10F7E00C94460A0D891E8986E08C831A83B7
S1130F2009838FEF9FE79E838D83AE01475E5F4FFA
S1130F306F89788DCE0101960E94A707EF81F8850D
S1130F40E00FF11F10822E96E4E00C94620AABE0ED
S1130F50B0E0EDEAF7E00C94380A6C017B018A01F9
S1130F60FC0117821682838181FFCCC1CE010196D8
S1130F703C01F6019381F70193FD859193FF8191E3
S1130F807F01882309F4BAC1853239F493FD859130
S1130F9093FF81917F01853229F4B60190E00E948C
S1130FA09E09E7CF912C212C312CFFE1F315D8F0C9
S1130FB08B3279F038F4803279F08332A1F4232D26
S1130FC020611DC08D3261F0803369F4232D2160CE
S1130FD016C0832D8260382EE32DE4603E2E2AC095
S1130FE0F32DF8601DC037FC2DC020ED280F2A30EA
S1130FF040F08E32B9F436FC81C1232D2064322EA8
S113100019C036FE06C08AE0989E200D1124922E47
S113101011C0EAE02E9E200D1124222EF32DF06241
S11310203F2E08C08C3621F4832D8068382E02C0F0
S1131030883641F4F70193FD859193FF81917F01F7
S11310408111B3CF982F9F7D9554933028F40C5F72
S11310501F4F9FE399830DC0833631F0833771F0BE
S1131060833509F059C021C0F801808189830E5F5E
S11310701F4F88248394912C530113C02801F2E05C
S11310804F0E511CF801A080B18036FE03C0692DBB
S113109070E002C06FEF7FEFC5010E9493094C011D
S11310A08201F32DFF773F2E16C0280122E0420E65
S11310B0511CF801A080B18036FE03C0692D70E098
S11310C002C06FEF7FEFC5010E9488094C01F32D28
S11310D0F0683F2E820133FC1BC0822D90E08816FD
S11310E09906B0F4B60180E290E00E949E092A9429
S11310F0F4CFF50137FC859137FE81915F01B6018C
S113110090E00E949E0921102A9421E0821A9108FD
S11311108114910471F7E8C0843611F0893641F5E1
S1131120F80137FE07C060817181828193810C5F71
S11311301F4F08C060817181072E000C880B990B2A
S11311400E5F1F4FF32DFF763F2E97FF09C090953A
S11311508095709561957F4F8F4F9F4FF0683F2E1C
S11311602AE030E0A3010E94DA09882E861845C0DF
S1131170853731F4232D2F7EB22E2AE030E025C0AE
S1131180932D997FB92E8F36C1F018F4883579F0F4
S1131190B5C0803719F0883721F0B0C0E92FE0617D
S11311A0BE2EB4FE0DC0FB2DF460BF2E09C034FE6C
S11311B00AC0292F2660B22E06C028E030E005C000
S11311C020E130E002C020E132E0F801B7FE07C0C0
S11311D060817181828193810C5F1F4F06C06081A1
S11311E0718180E090E00E5F1F4FA3010E94DA0935
S11311F0882E8618FB2DFF773F2E36FE0DC0232D3B
S11312002E7FA22E891458F434FE0BC032FC09C080
S1131210832D8E7EA82E05C0B82CA32C03C0B82C19
S113122001C0B92CA4FE0FC0FE01E80DF11D8081A0
S1131230803321F49A2D997EA92E09C0A2FE06C0FE
S1131240B394B39404C08A2D867809F0B394A3FCB4
S113125011C0A0FE06C0B21488F4280C922C9B186E
S11312600EC0B21460F4B60180E290E00E949E09C0
S1131270B394F7CFB21418F42B1802C0982C212C75
S1131280A4FE10C0B60180E390E00E949E09A2FE75
S113129017C0A1FC03C088E790E002C088E590E095
S11312A0B6010CC08A2D867859F0A1FE02C08BE2EB
S11312B001C080E2A7FC8DE2B60190E00E949E0985
S11312C0891438F4B60180E390E00E949E099A9450
S11312D0F7CF8A94F301E80DF11D8081B60190E007
S11312E00E949E098110F5CF222009F442CEB60156
S11312F080E290E00E949E092A94F6CFF60186814E
S1131300978102C08FEF9FEF2B96E2E10C94540A71
S1131310FC010590615070400110D8F780959095BC
S11313208E0F9F1F0895FC016150704001900110C1
S1131330D8F7809590958E0F9F1F08950F931F9354
S1131340CF93DF93FB01238121FD03C08FEF9FEF38
S11313502CC022FF16C04681578124813581421753
S1131360530744F4A081B1819D012F5F3F4F318326
S113137020838C93268137812F5F3F4F37832683C9
S113138014C08B01EC01FB010084F185E02D09956B
S1131390892BE1F6D80116968D919C9117970196A9
S11313A017969C938E931697CE01DF91CF911F9140
S11313B00F910895FA01AA27283051F1203181F1C3
S11313C0E8946F936E7F6E5F7F4F8F4F9F4FAF4F49
S11313D0B1E03ED0B4E03CD0670F781F891F9A1F5C
S11313E0A11D680F791F8A1F911DA11D6A0F711D10
S11313F0811D911DA11D20D009F468943F912AE01C
S1131400269F11243019305D3193DEF6CF01089503
S1131410462F4770405D4193B3E00FD0C9F7F6CF34
S1131420462F4F70405D4A3318F0495D31FD4052FC
S1131430419302D0A9F7EACFB4E0A6959795879592
S113144077956795BA95C9F7009761057105089571
S11314509B01AC010A2E069457954795379527951D
S1131460BA95C9F7620F731F841F951FA01D0895B5
S11314702F923F924F925F926F927F928F929F92A0
S1131480AF92BF92CF92DF92EF92FF920F931F938E
S1131490CF93DF93CDB7DEB7CA1BDB0B0FB6F8943F
S11314A0DEBF0FBECDBF09942A88398848885F847F
S11314B06E847D848C849B84AA84B984C884DF80F0
S11314C0EE80FD800C811B81AA81B981CE0FD11DD4
S11314D00FB6F894DEBF0FBECDBFED010895F894AA
S10514E0FFCF38
S11314E20D0A4F4B0D0A0041542B4349504D4F44B2
S11314F2453D25640041542B4349504D55583D25E3
S11315026400415445300041540041542B43495036
S1131512434C4F53453D310041542B43574D4F44A7
S1131522453D25640041542B43574A41503D2225F1
S113153273222C22257322000D0A5749464920435F
S11315424F4E4E45435445440D0A002B43574A41DE
S1131552503A31002B43574A41503A32002B4357F9
S11315624A41503A33002B43574A41503A340041DE
S1131572542B4349505354415455530053544154EA
S113158255533A32005354415455533A3300535449
S1131592415455533A34005354415455533A350047
S11315A24349504D55583A300041542B4349504D0C
S11315B255583F0041542B43495053544152543DD2
S11315C222544350222C222573222C257300415489
S11315D22B43495053544152543D222564222C2218
S11315E2544350222C222573222C257300434F4E40
S11315F24E4543540D0A0041542B43495053454E22
S1131602443D2564000D0A4F4B0D0A3E000D0A535A
S1131612454E44204F4B0D0A0070617373776F720D
S1131622640073736964003830006170692E7468F1
S1131632696E67737065616B2E636F6D003131394A
S113164239323200474554202F6368616E6E656CEF
S1131652732F25732F66656564732F6C6173742E03
S10716627478740020
S9030000FC
