:100000000C945A000C9464000C9464000C946400EA
:100010000C9464000C9464000C9464000C946400D0
:100020000C9464000C9464000C9464000C946400C0
:100030000C9464000C9496000C9464000C9464007E
:100040000C9464000C9464000C9464000C946400A0
:100050000C9464000C9464000C9464000C94640090
:100060000C9464000C9464000C9464000C94640080
:100070000C9464000C9464000C9464000C94640070
:100080000C9464000C9464000C9464000C94640060
:100090000C9464000C9464000C9464000C94640050
:1000A0000C9464000C9464000C9464000C94640040
:1000B0000C94640011241FBECFEFD8E0DEBFCDBF8B
:1000C0000E9487000C94DE020C94000088E080936C
:1000D000C10086E08093C20087E68093C400089543
:1000E00085E480937C0085E880937A000895E1E8B8
:1000F000F0E080818560808381E080936F0087EFEE
:1001000092EC9093850080938400789408950E94E7
:1001100077000E9466000E947000FFCFE0ECF0E0E4
:10012000908195FFFDCF8093C60008951F920F9296
:100130000FB60F9211242F933F934F935F936F93BA
:100140007F938F939F93AF93BF93CF93DF93EF935F
:10015000FF93EAE7F0E0808180648083808184FF00
:10016000FDCFEAE7F0E080818061808360917800D4
:100170008091790070E0782B072E000C880B990B8A
:100180000E94BD0120E030E040E85AE30E944902AD
:1001900020E030E44CE955E40E94490220E030E0E0
:1001A00040E251E40E9413010E948501CB0164E604
:1001B00070E00E94B602EC0180E3860F0E948E0080
:1001C000CE016AE070E00E94B602C82F80E3860F7D
:1001D0000E948E0080E38C0F0E948E008DE00E94B2
:1001E0008E002FEF81EE94E0215080409040E1F7A7
:1001F00000C0000087EF92EC90938500809384000C
:10020000FF91EF91DF91CF91BF91AF919F918F912E
:100210007F916F915F914F913F912F910F900FBE02
:100220000F901F9018950E9427010C940F020E94B6
:10023000080258F00E94010240F029F45F3F29F0C3
:100240000C94F80151110C9443020C94FE010E948D
:10025000200268F39923B1F3552391F3951B550BB5
:10026000BB27AA2762177307840738F09F5F5F4F89
:10027000220F331F441FAA1FA9F335D00E2E3AF0C8
:10028000E0E832D091505040E695001CCAF72BD0E0
:10029000FE2F29D0660F771F881FBB1F2617370731
:1002A0004807AB07B0E809F0BB0B802DBF01FF2763
:1002B00093585F4F3AF09E3F510578F00C94F80147
:1002C0000C9443025F3FE4F3983ED4F38695779510
:1002D0006795B795F7959F5FC9F7880F911D96951C
:1002E000879597F90895E1E0660F771F881FBB1F78
:1002F000621773078407BA0720F0621B730B840B25
:10030000BA0BEE1F88F7E09508950E948C0168945F
:10031000B1110C94430208950E94280288F09F575F
:1003200098F0B92F9927B751B0F0E1F0660F771F19
:10033000881F991F1AF0BA95C9F714C0B13091F00F
:100340000E944202B1E008950C944202672F782F78
:100350008827B85F39F0B93FCCF3869577956795D4
:10036000B395D9F73EF490958095709561957F4F40
:100370008F4F9F4F0895E89409C097FB3EF49095E6
:100380008095709561957F4F8F4F9F4F9923A9F06E
:10039000F92F96E9BB279395F695879577956795FD
:1003A000B795F111F8CFFAF4BB0F11F460FF1BC041
:1003B0006F5F7F4F8F4F9F4F16C0882311F096E9D4
:1003C00011C0772321F09EE8872F762F05C0662382
:1003D00071F096E8862F70E060E02AF09A95660F3B
:1003E000771F881FDAF7880F9695879597F90895F4
:1003F00097F99F6780E870E060E008959FEF80ECD8
:10040000089500240A94161617061806090608957A
:1004100000240A9412161306140605060895092EE0
:100420000394000C11F4882352F0BB0F40F4BF2B4F
:1004300011F460FF04C06F5F7F4F8F4F9F4F08958F
:1004400057FD9058440F551F59F05F3F71F0479585
:10045000880F97FB991F61F09F3F79F0879508956A
:10046000121613061406551FF2CF4695F1DF08C089
:10047000161617061806991FF1CF869571056105A6
:1004800008940895E894BB2766277727CB0197F94E
:1004900008950E945C020C940F020E94010238F041
:1004A0000E94080220F0952311F00C94F8010C949E
:1004B000FE0111240C9443020E94200270F3959FC8
:1004C000C1F3950F50E0551F629FF001729FBB274B
:1004D000F00DB11D639FAA27F00DB11DAA1F649FE7
:1004E0006627B00DA11D661F829F2227B00DA11D9A
:1004F000621F739FB00DA11D621F839FA00D611D20
:10050000221F749F3327A00D611D231F849F600D40
:10051000211D822F762F6A2F11249F5750409AF069
:10052000F1F088234AF0EE0FFF1FBB1F661F771FF5
:10053000881F91505040A9F79E3F510580F00C94C0
:10054000F8010C9443025F3FE4F3983ED4F38695A0
:1005500077956795B795F795E7959F5FC1F7FE2B60
:10056000880F911D9695879597F9089597FB072E0B
:1005700016F4009407D077FD09D00E94CA0207FC48
:1005800005D03EF4909581959F4F089570956195A3
:100590007F4F0895AA1BBB1B51E107C0AA1FBB1FB9
:1005A000A617B70710F0A61BB70B881F991F5A95FF
:1005B000A9F780959095BC01CD010895F894FFCFDF
:00000001FF
