:100000000C9434000C94E6020C9451000C945100B2
:100010000C9451000C9451000C9451000C9451001C
:100020000C9451000C9451000C9451000C9451000C
:100030000C9451000C9451000C9451000C945100FC
:100040000C9451000C9451000C9451000C945100EC
:100050000C9451000C9451000C9451000C945100DC
:100060000C9451000C94510011241FBECFEFD8E026
:10007000DEBFCDBF12E0A0E0B1E0E6EFFDE002C0E0
:1000800005900D92AE37B107D9F722E0AEE7B2E0A6
:1000900001C01D92A73AB207E1F70E9497030C94A2
:1000A000F9060C940000DF92EF92FF920F931F93DA
:1000B000CF93DF937B018A012A980E94B202D82E47
:1000C0000115110551F0E7010E0D1F1D88810E94D9
:1000D000B2028993C017D107C9F72A9A8D2DDF91F3
:1000E000CF911F910F91FF90EF90DF900895806264
:1000F0000E94530008950E94530008950F931F9388
:10010000CF93DF931F92CDB7DEB7F894E9E6F0E026
:10011000808182608083E89A7894219A229A2A9A30
:1001200029980E94A3022FEF81EE94E02150804095
:100130009040E1F700C000000FE30093A00241E00F
:1001400050E060EA72E080E00E9477001092A00226
:1001500041E050E060EA72E081E00E94770080EFC9
:100160008093A00241E050E060EA72E084E00E94E7
:1001700077001092A00241E050E060EA72E082E075
:100180000E94770084E78093A00241E050E060EA9B
:1001900072E085E00E9477008EE08093A00241E04B
:1001A00050E060EA72E086E00E94770010E710936A
:1001B000A00241E050E060EA72E087E00E94770030
:1001C0000093A00241E050E060EA72E08CE10E94FE
:1001D000770084E08093A00241E050E060EA72E0A2
:1001E0008DE10E947700198340E050E060E070E00C
:1001F00082EE0E94770040E050E060E070E081EE27
:100200000E94770045E050E065E071E08AE00E94DE
:10021000770045E050E060E071E080E10E94770007
:1002200041E050E0BE016F5F7F4F82E00E947700A7
:1002300089818160898341E050E0BE016F5F7F4F1B
:1002400082E00E9477000F90DF91CF911F910F9174
:1002500008951F93CF93DF931F92CDB7DEB7182F6A
:1002600041E050E0BE016F5F7F4F80E00E947B0065
:10027000133071F128F4113059F01230E9F05EC0FA
:10028000153009F447C0D0F1163009F445C056C006
:10029000898181FD53C082608093A00241E050E0DB
:1002A00060EA72E080E00E9477008FE39FE10197AF
:1002B000F1F700C0000042C089818D7F8093A002C9
:1002C00041E050E060EA72E080E00E94770036C0D2
:1002D000898181608093A00241E050E060EA72E091
:1002E00080E00E94770080E78093A00241E050E028
:1002F00060EA72E087E00E94770020C089818E7FEB
:100300008093A00241E050E060EA72E080E00E9449
:10031000770014C0299812C089818E7F8093A00233
:1003200041E050E060EA72E080E00E947700299AA4
:1003300087E592E00197F1F700C000000F90DF9190
:10034000CF911F91089583E00E942901299A87E5A2
:1003500092E00197F1F700C000000895CF92DF927C
:10036000EF92FF920F931F93CF93DF93CDB7DEB73A
:10037000A0970FB6F894DEBF0FBECDBF6C01689496
:10038000FF24F5F8CE010196FC012F2D11922A953C
:10039000E9F7B6010E94E403F60101900020E9F7B5
:1003A00031978F010C191D0984E00E94290140E05A
:1003B00050E060E070E082EE0E94770040E050E0A4
:1003C00060E070E081EE0E947700F092A00241E0D0
:1003D00050E060EA72E087E00E94770041E050E080
:1003E00060EA72E080E00E947B008091A00280645D
:1003F0008093A00241E050E060EA72E080E00E9459
:1004000077002A9880EB0E94AD02EFEFE00F002307
:1004100081F08601EE2EF12CF70131967601EE0E79
:10042000FF1EF80181918F010E94AD020E151F057C
:10043000C1F780E00E94AD022A9A299AF0E5FA9568
:10044000F1F7299841E050E060EA72E087E00E940D
:100450007B008091A00285FD0BC041E050E060EA86
:1004600072E087E00E947B008091A00285FFF5CFBB
:10047000CE0101969F938F9386E291E09F938F9395
:100480000E94EB0341E050E060EA72E080E00E94ED
:100490007B008091A0028F7B8093A00241E050E01E
:1004A00060EA72E080E00E9477000E94A3010F9052
:1004B0000F900F900F9081E0A0960FB6F894DEBFDA
:1004C0000FBECDBFDF91CF911F910F91FF90EF90A5
:1004D000DF90CF90089580E2EEE7F2E0DF011D9219
:1004E0008A95E9F741E050E060EA72E080E60E9418
:1004F0007B004091A002442341F050E04F5F5F4FEA
:100500006EE772E081E60E94530080917E028823AC
:1005100069F080E48093A00241E050E060EA72E07C
:1005200087E00E9477008EE792E0089580E4809350
:10053000A00241E050E060EA72E087E00E947700AC
:1005400088E391E00895249884B1886284B980E5B5
:100550008CBD8DB581608DBD08958EBD0DB407FE37
:10056000FDCF08958EBD0DB407FEFDCF8EB5089565
:10057000CF93C82F8A3019F48DE00E94B802E0ECC6
:10058000F0E0808185FFFDCFC093C60080E090E061
:10059000CF910895E0ECF0E080818823ECF7809122
:1005A000C60090E008951092C50087E68093C400CD
:1005B00088E18093C100E1EAF2E088E191E0938371
:1005C00082838AE091E09183808308951F920F9245
:1005D0000FB60F9211248F9381E080939F028F9129
:1005E0000F900FBE0F901F901895CF93DF931F921F
:1005F000CDB7DEB78FE391E00E9401048DE691E074
:100600000E94010441E050E0BE016F5F7F4F80E037
:100610000E947B0089811F928F9389E991E09F93CB
:100620008F930E94EB0341E050E0BE016F5F7F4F6C
:1006300081E00E947B0089811F928F9387EA91E07D
:100640009F938F930E94EB0341E050E0BE016F5FE8
:100650007F4F82E00E947B0089811F928F9385EB00
:1006600091E09F938F930E94EB0341E050E0BE0125
:100670006F5F7F4F84E00E947B0089811F928F9380
:1006800086EC91E09F938F930E94EB0341E050E052
:10069000BE016F5F7F4F85E00E947B0089811F92C2
:1006A0008F9388ED91E09F938F930E94EB0341E03D
:1006B00050E0BE016F5F7F4F86E00E947B00898122
:1006C0001F928F9386EE91E09F938F930E94EB038E
:1006D00041E050E0BE016F5F7F4F87E00E947B00EA
:1006E00089811F928F9386EF91E09F938F930E9451
:1006F000EB0341E050E0BE016F5F7F4F8DE10E9450
:100700007B0089811F928F9384E092E09F938F9367
:100710000E94EB030FB6F894DEBF0FBECDBF83E19E
:1007200092E00E9401040F90DF91CF910895CF9342
:10073000DF93CDB7DEB7A0970FB6F894DEBF0FBE3C
:10074000CDBF8DE0E0E4F2E0DE01119601900D9264
:100750008A95E1F70E94D3020E947E000E94F50272
:100760000E94A3010DE412E0FF24F39480919F0204
:100770008823E1F310929F020E946B029F938F9354
:100780001F930F930E94EB032FEF89E698E121500E
:1007900080409040E1F700C00000CE0101960E9429
:1007A000AE019F2D0F900F900F900F90811101C0FF
:1007B00090E090939E0280919E028823B9F283E696
:1007C00092E00E940104D2CFFB01DC0101900D9266
:1007D0000020E1F70895A0E0B0E0E1EFF3E00C9431
:1007E000D206AE014B5F5F4FFA0161917191AF018B
:1007F0008091A3029091A4020E943104E2E00C9443
:10080000EE060F931F93CF93DF93E091A302F09135
:10081000A402238121FF1BC08C01D0E0C0E0F801BD
:1008200081918F016091A3027091A402DB0118965F
:10083000ED91FC911997882331F00995892B79F373
:10084000DFEFCFEFECCF8AE00995892B19F08FEF1E
:100850009FEF02C08D2F9C2FDF91CF911F910F91A1
:100860000895ABE0B0E0E7E3F4E00C94C2066C015D
:100870007B018A01FC0117821682838181FFCCC132
:10088000CE0101963C01F6019381F70193FD85911C
:1008900093FF81917F01882309F4BAC1853239F42D
:1008A00093FD859193FF81917F01853229F4B601F3
:1008B00090E00E942806E7CF912C212C312CFFE1FB
:1008C000F315D8F08B3279F038F4803279F0833236
:1008D000A1F4232D20611DC08D3261F0803369F4B5
:1008E000232D216016C0832D8260382EE32DE46015
:1008F0003E2E2AC0F32DF8601DC037FC2DC020ED20
:10090000280F2A3040F08E32B9F436FC81C1232DF5
:100910002064322E19C036FE06C08AE0989E200D53
:100920001124922E11C0EAE02E9E200D1124222EB9
:10093000F32DF0623F2E08C08C3621F4832D8068A1
:10094000382E02C0883641F4F70193FD859193FF5C
:1009500081917F018111B3CF982F9F7D9554933062
:1009600028F40C5F1F4F9FE399830DC0833631F04D
:10097000833771F0833509F059C021C0F8018081B7
:1009800089830E5F1F4F88248394912C530113C0D9
:100990002801F2E04F0E511CF801A080B18036FE14
:1009A00003C0692D70E002C06FEF7FEFC5010E94A8
:1009B0001D064C018201F32DFF773F2E16C0280142
:1009C00022E0420E511CF801A080B18036FE03C027
:1009D000692D70E002C06FEF7FEFC5010E94120623
:1009E0004C01F32DF0683F2E820133FC1BC0822D99
:1009F00090E088169906B0F4B60180E290E00E947B
:100A000028062A94F4CFF50137FC859137FE8191B1
:100A10005F01B60190E00E94280621102A9421E08F
:100A2000821A91088114910471F7E8C0843611F09C
:100A3000893641F5F80137FE07C0608171818281F6
:100A400093810C5F1F4F08C060817181072E000CDD
:100A5000880B990B0E5F1F4FF32DFF763F2E97FFEC
:100A600009C090958095709561957F4F8F4F9F4FEE
:100A7000F0683F2E2AE030E0A3010E946406882E31
:100A8000861845C0853731F4232D2F7EB22E2AE0FB
:100A900030E025C0932D997FB92E8F36C1F018F420
:100AA000883579F0B5C0803719F0883721F0B0C0AB
:100AB000E92FE061BE2EB4FE0DC0FB2DF460BF2E09
:100AC00009C034FE0AC0292F2660B22E06C028E0D5
:100AD00030E005C020E130E002C020E132E0F80162
:100AE000B7FE07C060817181828193810C5F1F4FC7
:100AF00006C06081718180E090E00E5F1F4FA3010E
:100B00000E946406882E8618FB2DFF773F2E36FE46
:100B10000DC0232D2E7FA22E891458F434FE0BC055
:100B200032FC09C0832D8E7EA82E05C0B82CA32CC4
:100B300003C0B82C01C0B92CA4FE0FC0FE01E80D03
:100B4000F11D8081803321F49A2D997EA92E09C050
:100B5000A2FE06C0B394B39404C08A2D867809F02F
:100B6000B394A3FC11C0A0FE06C0B21488F4280CF4
:100B7000922C9B180EC0B21460F4B60180E290E093
:100B80000E942806B394F7CFB21418F42B1802C0B1
:100B9000982C212CA4FE10C0B60180E390E00E94A6
:100BA0002806A2FE17C0A1FC03C088E790E002C09F
:100BB00088E590E0B6010CC08A2D867859F0A1FE38
:100BC00002C08BE201C080E2A7FC8DE2B60190E09A
:100BD0000E942806891438F4B60180E390E00E9450
:100BE00028069A94F7CF8A94F301E80DF11D8081CD
:100BF000B60190E00E9428068110F5CF222009F46A
:100C000042CEB60180E290E00E9428062A94F6CFF8
:100C1000F6018681978102C08FEF9FEF2B96E2E16C
:100C20000C94DE06FC010590615070400110D8F76D
:100C3000809590958E0F9F1F0895FC016150704024
:100C400001900110D8F7809590958E0F9F1F089501
:100C50000F931F93CF93DF93FB01238121FD03C0EB
:100C60008FEF9FEF2CC022FF16C046815781248151
:100C700035814217530744F4A081B1819D012F5F54
:100C80003F4F318320838C93268137812F5F3F4FE5
:100C90003783268314C08B01EC01FB010084F185AE
:100CA000E02D0995892BE1F6D80116968D919C913E
:100CB0001797019617969C938E931697CE01DF9106
:100CC000CF911F910F910895FA01AA27283051F171
:100CD000203181F1E8946F936E7F6E5F7F4F8F4F6D
:100CE0009F4FAF4FB1E03ED0B4E03CD0670F781FCC
:100CF000891F9A1FA11D680F791F8A1F911DA11DB1
:100D00006A0F711D811D911DA11D20D009F46894E9
:100D10003F912AE0269F11243019305D3193DEF691
:100D2000CF010895462F4770405D4193B3E00FD047
:100D3000C9F7F6CF462F4F70405D4A3318F0495D32
:100D400031FD4052419302D0A9F7EACFB4E0A69515
:100D50009795879577956795BA95C9F70097610537
:100D6000710508959B01AC010A2E0694579547958D
:100D700037952795BA95C9F7620F731F841F951F82
:100D8000A01D08952F923F924F925F926F927F9293
:100D90008F929F92AF92BF92CF92DF92EF92FF928B
:100DA0000F931F93CF93DF93CDB7DEB7CA1BDB0B37
:100DB0000FB6F894DEBF0FBECDBF09942A883988DC
:100DC00048885F846E847D848C849B84AA84B984E3
:100DD000C884DF80EE80FD800C811B81AA81B981EF
:100DE000CE0FD11D0FB6F894DEBF0FBECDBFED0103
:060DF0000895F894FFCF06
:100DF600E7E7E7E7E7E7E7E7E7E7000000010000E6
:100E060000000000CA02000000000002000000000E
:100E1600B802000000004D65737361676520736555
:100E26006E743A2025730A006661696C6564005326
:100E36007461727475702073756363657373667518
:100E46006C0A0A206E524632344C30312B20636FC6
:100E56006E666967757265642061733A002D2D2D83
:100E66002D2D2D2D2D2D2D2D2D2D2D2D2D2D2D2DAC
:100E76002D2D2D2D2D2D2D2D2D2D2D2D2D2D2D2D9C
:100E86002D2D2D2D2D2D2D2D00434F4E4649470935
:100E960009307825780A00454E5F41410909093035
:100EA6007825780A00454E5F525841444452090954
:100EB600307825780A0053455455505F52455452B0
:100EC6000909307825780A0052465F43480909091E
:100ED600307825780A0052465F5345545550090923
:100EE600307825780A00535441545553090930780F
:100EF60025780A004645415455524509093078255A
:100F0600780A002D2D2D2D2D2D2D2D2D2D2D2D2D10
:100F16002D2D2D2D2D2D2D2D2D2D2D2D2D2D2D2DFB
:100F26002D2D2D2D2D2D2D2D2D2D2D2D2D2D0A003B
:100F360048656C6C6F20576F726C64210052656354
:100F46006569766564206D6573736167653A20250A
:100F5600730A004D6573736167652073656E74204F
:0E0F66007375636365737366756C6C79000058
:00000001FF
