:100000000C944B000C9468000C9468000C946800ED
:100010000C9468000C9468000C9468000C946800C0
:100020000C9468000C9468000C9468000C946800B0
:100030000C9468000C9468000C9468000C946800A0
:100040000C9468000C9468000C9468000C94680090
:100050000C9468000C9468000C9468000C94680080
:100060000C9468000C946800DB03DD02ED02E902E9
:10007000E902E902E902E902E902E902E902E90228
:10008000E902F003E902E902E9029B02E902ED025A
:10009000E902E902B40311241FBECFEFD8E0DEBFAE
:1000A000CDBF11E0A0E0B1E0E2EFF9E002C00590C1
:1000B0000D92AE32B107D9F721E0AEE2B1E001C056
:1000C0001D92A833B207E1F70E944B040C94F70489
:1000D0000C9400000E94AE0480E00E94B40481E011
:1000E0000E94BA040895EF92FF921F93CF93DF937B
:1000F000E82E80E00E94C004C7E0D0E010E0F12CC0
:1001000097010C2E02C0359527950A94E2F720FF3F
:1001100004C081E00E94C60403C080E00E94C604BF
:1001200081E00E94C004110F0E94CC048111116073
:1001300080E00E94C004219718F7812FDF91CF91B2
:100140001F91FF90EF900895CF9380E00E94BA0432
:100150008FEF0E947300C82F81E00E94BA048C2F99
:10016000CF910895EF92FF920F931F93CF93DF9358
:100170004423A1F0EC01062F172F4150E42EF12C5F
:100180002FEFE21AF20AE80EF91E89910E9473001D
:10019000F80181938F01CE15DF05B9F7DF91CF917B
:1001A0001F910F91FF90EF9008950F931F93CF939E
:1001B000DF93662371F0EC016150062F10E00F5FB2
:1001C0001F4F080F191F89910E947300C017D10794
:1001D000D1F7DF91CF911F910F910895CF93DF93C6
:1001E000C82FD62F80E00E94BA048C2F8F718062B6
:1001F0000E9473008D2F0E94730081E00E94BA0458
:10020000DF91CF910895CF93DF93EC0180E00E94BE
:10021000BA0481E60E94730040913001BE01CE0114
:100220000E94B20081E00E94BA0460E487E00E946C
:10023000EE00DF91CF91089580E00E94BA0482EE33
:100240000E94730081E00E94BA0460E787E00E9488
:10025000EE0080E00E94B4046BE080E00E94EE00BB
:1002600081E00E94B404089560933001682F85E016
:100270000E94EE0060E081E10E94EE00609130019A
:1002800082E10E94EE0060E083E10E94EE0060E007
:1002900084E10E94EE0060E085E10E94EE0060E0F3
:1002A00086E10E94EE0066E086E00E94EE0068E0D3
:1002B00080E00E94EE0063E081E00E94EE0063E0D7
:1002C00082E00E94EE006FE484E00E94EE0060E0B5
:1002D0008CE10E94EE000E941C0108950F931F9371
:1002E000CF93DF93082FEB01142F80E00E94BA0414
:1002F000802F8F710E947300412FBE01CE010E949A
:10030000B20081E00E94BA04DF91CF911F910F915A
:100310000895CF93DF931F92CDB7DEB741E0BE01C2
:100320006F5F7F4F87E10E946E01898181700F901E
:10033000DF91CF9108950E94A40086FD07C00E941E
:10034000890191E0882319F090E001C091E0892FA4
:1003500008950F931F93CF93DF93C82F8B01D42F52
:1003600080E00E94BA048C2F8F7180620E9473001B
:100370006D2FC8010E94D50081E00E94BA04DF9170
:10038000CF911F910F910895CF93DF93EC0180E0FF
:100390000E94B40445E0BE018BE00E94A90181E007
:1003A0000E94B404DF91CF910895CF93DF93EC01C5
:1003B00045E0BC018AE00E94A90145E0BE0180E160
:1003C0000E94A901DF91CF910895E0912E01F09153
:1003D0002F01309749F09F012F5F3F4F30932F013E
:1003E00020932E0180830895E0913101F091320134
:1003F000309709F009950895CF93DF93EC01888138
:10040000882331F021960E94E50189918111FBCF6B
:10041000DF91CF9108952F923F924F925F926F920A
:100420007F928F929F92AF92BF92CF92DF92EF9284
:10043000FF920F931F93CF93DF93CDB7DEB76497EF
:100440000FB6F894DEBF0FBECDBF1C017A8B698B4F
:1004500002C0BA8AA98AD1018C91882309F4C7C144
:10046000853231F0BFEF2B1A3B0A0E94E501F3CF32
:10047000F101B181B03349F4B28191012D5F3F4F59
:100480001901EE24E394F12C12C0BD3231F032E0B8
:10049000230E311CE12CF12C0AC0F101B281910133
:1004A0002D5F3F4F19016894EE24E1F8F12C90ED97
:1004B0009B0F9A30E0F400E010E0C801880F991F0C
:1004C000000F111F000F111F000F111F080F191F20
:1004D0000B0F111D005311093FEF231A330AF101CD
:1004E0003197B08180ED8B0F8A3038F302C000E085
:1004F00010E09B2F9F7D9C3441F46894E2F8F10159
:10050000B08191012F5F3F4F1901BB2309F46FC1E7
:10051000B13618F0A0EEAB0F01C0AB2F4A2F50E060
:10052000FA01E254F109E731F10508F052C0EC5C40
:10053000FF4F0C94F104A988BA8832E0A30EB11CD5
:10054000A989BA89CD90DC90F6018081882351F089
:100550003196812C912C2FEF821A920A8191811170
:10056000FACF02C0812C912CE1FC13C0C40101968A
:100570008016910608F40CC14C010BC03FEFE31A42
:10058000F30AE016F10608F4FFC048014FEF841AA1
:10059000940AC6010E94FC018016910608F059CF0A
:1005A000740180E20E94E5015FEFE51AF50AE016AA
:1005B000F106B8F3BA8AA98A4ECF09891A890E5F63
:1005C0001F4FA989BA898C910E94E5011A8B098B6A
:1005D00042CF8B2F0E94E5013ECFE2FE19C00F2EC5
:1005E000FAE04F2EF02D512C04C06894442444F8B6
:1005F000512C29893A892C5F3F4FE989FA8960811A
:10060000718182819381A43409F13A8B298B2BC0AB
:100610000F2EFAE04F2EF02D512CA43461F4E9890D
:10062000FA8940815181BA01550F880B990B329696
:10063000FA8BE98B0DC0E989FA8940815181BA01B1
:1006400080E090E03296FA8BE98B0DC03A8B298BD3
:1006500099234CF490958095709561957F4F8F4FBD
:100660009F4F6894E3F8B83711F427E201C027E000
:10067000AE014F5F5F4F4A01A12CB12C612C712C50
:100680001C8B0B8B122F01C05601A30192010E94FB
:10069000CF04F62FE62F622F732F842F952FFA3079
:1006A00010F0E12FEF0F65015FEFC51AD50AE05D8D
:1006B000D401ED934D01611571058105910521F07E
:1006C000B0E1CB16D10401F70B891C89E3FE0CC005
:1006D000E1E0F0E0EC0FFD1FEC0DFD1D2DE22083AD
:1006E000A5014E5F5F4F6A01E0FC04C06894BB2423
:1006F000B5F804C00F2EF0E3BF2EF02DE1FC13C0BF
:1007000076015FEFE51AF50AC016D106C0F10CC0FC
:100710008FEFE81AF80AE016F10668F178019FEF0A
:10072000E91AF90A01C07601AA24A394B12CAC0EEF
:10073000BD1EAC0CBD1CA1E0CA1AD108F501829106
:100740005F010E94E501C114D104A9F7E016F1068A
:1007500008F081CE80E20E94E501FFEFEF1AFF0A68
:10076000E016F106B8F377CEE2FC3FCF689444245C
:1007700044F8512C60CF8B2D0E94E501C9CF8B2D01
:100780000E94E5017601C4CF80E20E94E501F6CE29
:1007900080E20E94E5017401F1CEE989FA89608165
:1007A0007181828193813496FA8BE98B6894442419
:1007B00041F8512C58CFE2FCF0CF6894442441F822
:1007C000512C2BCFE989FA896081718182819381D3
:1007D0003496FA8BE98B6894442443F8512C43CF28
:1007E000E2FCF0CF6894442443F8512C24CF649663
:1007F0000FB6F894DEBF0FBECDBFDF91CF911F9132
:100800000F91FF90EF90DF90CF90BF90AF909F90AF
:100810008F907F906F905F904F903F902F900895B2
:10082000CF93DF93CDB7DEB7BE016B5F7F4FFB0188
:1008300081919191BF010E940B02DF91CF910895A8
:100840002A98EFE8F1E03197F1F700C0000020E0CE
:1008500030E090E0AC01022E02C0559547950A9415
:10086000E2F740FF02C02A9A01C02A98EFE8F1E0BF
:100870003197F1F700C000002F5F3F4F283031055E
:1008800049F72A9A8FE891E00197F1F700C000003C
:100890000895229A08950E94490480E294E090937A
:1008A0003201809331018AE091E09F938F930E94FF
:1008B00010040E946A0064E082E00E94340185E036
:1008C00091E00E94D50180E091E00E94C4010F9068
:1008D0000F900F2EF0E2CF2EF1E0DF2EF02DC3E2CD
:1008E000D1E00F2EF8E2EF2EF1E0FF2EF02D0E9466
:1008F0009B018823E1F384E391E00E940301DF92EE
:10090000CF920E94100404E311E0F80180811F924D
:100910008F93DF93CF930E941004F80181811F927F
:100920008F93DF93CF930E941004F80182811F926E
:100930008F93DF93CF930E941004F80183811F925D
:100940008F93FF92EF920E9410048DB79EB742964C
:100950000FB6F8949EBF0FBE8DBFC9CF389A399A93
:100960003A9A3B9A3C980895882311F0409A08954A
:1009700040980895882311F0419A08954198089568
:10098000882311F0429A089542980895882311F01F
:10099000439A08954398089586B180710895A1E21D
:1009A0001A2EAA1BBB1BFD010DC0AA1FBB1FEE1FE9
:1009B000FF1FA217B307E407F50720F0A21BB30B34
:1009C000E40BF50B661F771F881F991F1A9469F7B0
:1009D00060957095809590959B01AC01BD01CF010C
:1009E0000895EE0FFF1F0590F491E02D0994F894FF
:0209F000FFCF37
:1009F200E7E7E7E7E7D7D7D7D7D70D0A3E20525820
:100A0200206465766963652072656164790D0A0008
:0E0A12003E200025325820002532580D0A00E3
:00000001FF
