:100000000C945A000C9477000C9477000C947700B1
:100010000C9477000C9477000C9477000C94770084
:100020000C9477000C9477000C9477000C94770074
:100030000C9477000C9477000C9477000C94770064
:100040000C9477000C9477000C9477000C94770054
:100050000C9477000C9477000C9477000C94770044
:100060000C9477000C9477000C9477000C94770034
:100070000C9477000C9477000C9477000C94770024
:100080000C9477000C9477000C9477000C94770014
:100090000C9477000C9477000C9477000C94770004
:1000A0000C9477000C9477000C9477000C947700F4
:1000B0000C94770011241FBECFEFD8E0DEBFCDBF78
:1000C00011E0A0E0B1E0E2E8F3E002C005900D929B
:1000D000A831B107D9F721E0A8E1B1E001C01D9234
:1000E000AA32B207E1F70E9427010C94BF010C94D9
:1000F0000000E0ECF0E0908195FFFDCF8093C6001A
:100100000895CF93DF93EC018881882331F0219605
:100110000E94790089918111FBCFDF91CF910895E1
:1001200082E091E00E94810008951F93CF93DF93B6
:10013000CDB7DEB728970FB6F894DEBF0FBECDBFA0
:10014000182FCB014AE050E0BE016F5F7F4F0E9445
:100150007701812F0E9479008AE30E947900CE0105
:1001600001960E94810085E191E00E94810028961D
:100170000FB6F894DEBF0FBECDBFDF91CF911F91B8
:100180000895F89488E0E1E2F1E0A9E1B1E001909E
:100190000D928A95E1F7E0912101F0E088E0DF011E
:1001A0001D928A95E9F778940895CF93DF93CDB7A0
:1001B000DEB760970FB6F894DEBF0FBECDBF6DE31C
:1001C00070E089E191E00E946501BC016F5F7F4FA3
:1001D000CE0101960E947001CE0101960E94470156
:1001E000BC01990F880B990B60960FB6F894DEBF8F
:1001F0000FBECDBFDF91CF910895809119018D344D
:10020000D1F08335F9F480911A018F3349F460916C
:1002100000017091010183E590E00E94950008952E
:1002200080911A018D3391F40E94D50070930101E1
:1002300060930001089580911A018F3339F0809105
:100240001A01089587E091E00E9481000895E1EC91
:10025000F0E0808188618083A2ECB0E08C918660C0
:100260008C931092C50087E68093C40080818068DB
:1002700080837894809129018130E1F70E94C10048
:100280000E94FD00109229010E949000F3CFFC0112
:1002900088279927E89421912032E9F3293010F03A
:1002A0002E30C8F32B3241F02D3239F4689404C05B
:1002B0000E948D01820F911D219120532A30C0F39D
:1002C0001EF4909581959F4F0895FC0181918617AA
:1002D00021F08823D9F7992708953197CF01089500
:1002E000FB01DC0101900D920020E1F708954532F9
:1002F000510520F4423010F00C948201FB01108271
:10030000CB010895BB274A3031F4992322F4BDE292
:10031000909581959F4F0C9496017AE0979F902D30
:10032000879F802D910D11240895BB27FB01552730
:10033000AA27880F991FAA1FA41710F0A41B839542
:100340005051B9F7A05DAA3308F0A95DA1930097B9
:1003500079F7B111B1931192CB010C94AF01DC018B
:10036000FC01672F71917723E1F7329704C07C91EC
:100370006D9370836291AE17BF07C8F30895F89428
:02038000FFCFAD
:10038200DF004F4B0D0A004E4F54205245434F475A
:080392004E495345440D0A00D9
:00000001FF
